{
  "abi": [
    {
      "inputs": [
        {
          "internalType": "address",
          "name": "factoryV1",
          "type": "address"
        },
        {
          "internalType": "address",
          "name": "legacyFactoryV2",
          "type": "address"
        },
        {
          "internalType": "address",
          "name": "factoryV2",
          "type": "address"
        },
        {
          "internalType": "address",
          "name": "legacyRouterV2",
          "type": "address"
        },
        {
          "internalType": "address",
          "name": "routerV2",
          "type": "address"
        }
      ],
      "stateMutability": "nonpayable",
      "type": "constructor"
    },
    {
      "inputs": [],
      "name": "JoeLibrary__AddressZero",
      "type": "error"
    },
    {
      "inputs": [],
      "name": "JoeLibrary__IdenticalAddresses",
      "type": "error"
    },
    {
      "inputs": [],
      "name": "JoeLibrary__InsufficientAmount",
      "type": "error"
    },
    {
      "inputs": [],
      "name": "JoeLibrary__InsufficientLiquidity",
      "type": "error"
    },
    {
      "inputs": [],
      "name": "LBQuoter_InvalidLength",
      "type": "error"
    },
    {
      "inputs": [],
      "name": "SafeCast__Exceeds128Bits",
      "type": "error"
    },
    {
      "inputs": [],
      "name": "SafeCast__Exceeds24Bits",
      "type": "error"
    },
    {
      "inputs": [
        {
          "internalType": "uint256",
          "name": "x",
          "type": "uint256"
        },
        {
          "internalType": "int256",
          "name": "y",
          "type": "int256"
        }
      ],
      "name": "Uint128x128Math__PowUnderflow",
      "type": "error"
    },
    {
      "inputs": [],
      "name": "Uint256x256Math__MulDivOverflow",
      "type": "error"
    },
    {
      "inputs": [],
      "name": "Uint256x256Math__MulShiftOverflow",
      "type": "error"
    },
    {
      "inputs": [
        {
          "internalType": "address[]",
          "name": "route",
          "type": "address[]"
        },
        {
          "internalType": "uint128",
          "name": "amountIn",
          "type": "uint128"
        }
      ],
      "name": "findBestPathFromAmountIn",
      "outputs": [
        {
          "components": [
            {
              "internalType": "address[]",
              "name": "route",
              "type": "address[]"
            },
            {
              "internalType": "address[]",
              "name": "pairs",
              "type": "address[]"
            },
            {
              "internalType": "uint256[]",
              "name": "binSteps",
              "type": "uint256[]"
            },
            {
              "internalType": "enum ILBRouter.Version[]",
              "name": "versions",
              "type": "uint8[]"
            },
            {
              "internalType": "uint128[]",
              "name": "amounts",
              "type": "uint128[]"
            },
            {
              "internalType": "uint128[]",
              "name": "virtualAmountsWithoutSlippage",
              "type": "uint128[]"
            },
            {
              "internalType": "uint128[]",
              "name": "fees",
              "type": "uint128[]"
            }
          ],
          "internalType": "struct LBQuoter.Quote",
          "name": "quote",
          "type": "tuple"
        }
      ],
      "stateMutability": "view",
      "type": "function"
    },
    {
      "inputs": [
        {
          "internalType": "address[]",
          "name": "route",
          "type": "address[]"
        },
        {
          "internalType": "uint128",
          "name": "amountOut",
          "type": "uint128"
        }
      ],
      "name": "findBestPathFromAmountOut",
      "outputs": [
        {
          "components": [
            {
              "internalType": "address[]",
              "name": "route",
              "type": "address[]"
            },
            {
              "internalType": "address[]",
              "name": "pairs",
              "type": "address[]"
            },
            {
              "internalType": "uint256[]",
              "name": "binSteps",
              "type": "uint256[]"
            },
            {
              "internalType": "enum ILBRouter.Version[]",
              "name": "versions",
              "type": "uint8[]"
            },
            {
              "internalType": "uint128[]",
              "name": "amounts",
              "type": "uint128[]"
            },
            {
              "internalType": "uint128[]",
              "name": "virtualAmountsWithoutSlippage",
              "type": "uint128[]"
            },
            {
              "internalType": "uint128[]",
              "name": "fees",
              "type": "uint128[]"
            }
          ],
          "internalType": "struct LBQuoter.Quote",
          "name": "quote",
          "type": "tuple"
        }
      ],
      "stateMutability": "view",
      "type": "function"
    },
    {
      "inputs": [],
      "name": "getFactoryV1",
      "outputs": [
        {
          "internalType": "address",
          "name": "factoryV1",
          "type": "address"
        }
      ],
      "stateMutability": "view",
      "type": "function"
    },
    {
      "inputs": [],
      "name": "getFactoryV2",
      "outputs": [
        {
          "internalType": "address",
          "name": "factoryV2",
          "type": "address"
        }
      ],
      "stateMutability": "view",
      "type": "function"
    },
    {
      "inputs": [],
      "name": "getLegacyFactoryV2",
      "outputs": [
        {
          "internalType": "address",
          "name": "legacyFactoryV2",
          "type": "address"
        }
      ],
      "stateMutability": "view",
      "type": "function"
    },
    {
      "inputs": [],
      "name": "getLegacyRouterV2",
      "outputs": [
        {
          "internalType": "address",
          "name": "legacyRouterV2",
          "type": "address"
        }
      ],
      "stateMutability": "view",
      "type": "function"
    },
    {
      "inputs": [],
      "name": "getRouterV2",
      "outputs": [
        {
          "internalType": "address",
          "name": "routerV2",
          "type": "address"
        }
      ],
      "stateMutability": "view",
      "type": "function"
    }
  ],
  "bytecode": {
    "object": "0x6101206040523480156200001257600080fd5b5060405162003ae738038062003ae783398101604081905262000035916200007d565b6001600160a01b0394851660805292841660a05290831660c052908216610100521660e052620000ed565b80516001600160a01b03811681146200007857600080fd5b919050565b600080600080600060a086880312156200009657600080fd5b620000a18662000060565b9450620000b16020870162000060565b9350620000c16040870162000060565b9250620000d16060870162000060565b9150620000e16080870162000060565b90509295509295909350565b60805160a05160c05160e05161010051613947620001a0600039600081816101090152818161110a015261252301526000818160e301528181610a9d0152611e6f01526000818161016801528181610eac01528181610edd015281816122cf01526123080152600081816101420152818161083f0152818161087001528181611c1b0152611c540152600081816084015281816104620152818161049101528181611807015261183e01526139476000f3fe608060405234801561001057600080fd5b506004361061007d5760003560e01c806333141d3e1161005b57806333141d3e14610107578063592142261461012d5780638fe4b3ad14610140578063ca56fc721461016657600080fd5b806307da8f57146100825780630f902a40146100c157806323229d6d146100e1575b600080fd5b7f00000000000000000000000000000000000000000000000000000000000000005b6040516001600160a01b0390911681526020015b60405180910390f35b6100d46100cf366004613153565b61018c565b6040516100b891906132f5565b7f00000000000000000000000000000000000000000000000000000000000000006100a4565b7f00000000000000000000000000000000000000000000000000000000000000006100a4565b6100d461013b366004613153565b61153e565b7f00000000000000000000000000000000000000000000000000000000000000006100a4565b7f00000000000000000000000000000000000000000000000000000000000000006100a4565b6101cc6040518060e00160405280606081526020016060815260200160608152602001606081526020016060815260200160608152602001606081525090565b60028310156101ee57604051632973c80b60e01b815260040160405180910390fd5b838380806020026020016040519081016040528093929190818152602001838360200280828437600092018290525093855250610230915060019050856133d8565b90508067ffffffffffffffff81111561024b5761024b6133ef565b604051908082528060200260200182016040528015610274578160200160208202803683370190505b5060208301528067ffffffffffffffff811115610293576102936133ef565b6040519080825280602002602001820160405280156102bc578160200160208202803683370190505b5060408301528067ffffffffffffffff8111156102db576102db6133ef565b604051908082528060200260200182016040528015610304578160200160208202803683370190505b5060608301528067ffffffffffffffff811115610323576103236133ef565b60405190808252806020026020018201604052801561034c578160200160208202803683370190505b5060c08301528367ffffffffffffffff81111561036b5761036b6133ef565b604051908082528060200260200182016040528015610394578160200160208202803683370190505b5060808301528367ffffffffffffffff8111156103b3576103b36133ef565b6040519080825280602002602001820160405280156103dc578160200160208202803683370190505b508260a001819052508282608001516000815181106103fd576103fd613405565b60200260200101906001600160801b031690816001600160801b031681525050828260a0015160008151811061043557610435613405565b60200260200101906001600160801b031690816001600160801b03168152505060005b81811015611535577f00000000000000000000000000000000000000000000000000000000000000006001600160a01b03161561083d577f00000000000000000000000000000000000000000000000000000000000000006001600160a01b031663e6a439058787848181106104d0576104d0613405565b90506020020160208101906104e59190613430565b88886104f2866001613454565b81811061050157610501613405565b90506020020160208101906105169190613430565b6040516001600160e01b031960e085901b1681526001600160a01b03928316600482015291166024820152604401602060405180830381865afa158015610561573d6000803e3d6000fd5b505050506040513d601f19601f82011682018060405250810190610585919061346c565b8360200151828151811061059b5761059b613405565b6001600160a01b03909216602092830291909101820152830151805160009190839081106105cb576105cb613405565b60200260200101516001600160a01b03161415801561061057506000836080015182815181106105fd576105fd613405565b60200260200101516001600160801b0316115b1561083d576000806106968560200151848151811061063157610631613405565b602002602001015189898681811061064b5761064b613405565b90506020020160208101906106609190613430565b8a8a61066d886001613454565b81811061067c5761067c613405565b90506020020160208101906106919190613430565b6129aa565b915091506000821180156106aa5750600081115b1561083a576106e86106e3866080015185815181106106cb576106cb613405565b60200260200101516001600160801b03168484612a78565b612b0f565b60808601516106f8856001613454565b8151811061070857610708613405565b60200260200101906001600160801b031690816001600160801b0316815250506107746106e38660a00151858151811061074457610744613405565b60200260200101516103e56107599190613489565b6001600160801b031661076e856103e86134b8565b84612b3e565b60a0860151610784856001613454565b8151811061079457610794613405565b60200260200101906001600160801b031690816001600160801b031681525050660aa87bee5380008560c0015184815181106107d2576107d2613405565b60200260200101906001600160801b031690816001600160801b03168152505060008560600151848151811061080a5761080a613405565b602002602001019060028111156108235761082361324d565b908160028111156108365761083661324d565b9052505b50505b7f00000000000000000000000000000000000000000000000000000000000000006001600160a01b031615610eaa5760007f00000000000000000000000000000000000000000000000000000000000000006001600160a01b0316636622e0d78888858181106108af576108af613405565b90506020020160208101906108c49190613430565b89896108d1876001613454565b8181106108e0576108e0613405565b90506020020160208101906108f59190613430565b6040516001600160e01b031960e085901b1681526001600160a01b03928316600482015291166024820152604401600060405180830381865afa158015610940573d6000803e3d6000fd5b505050506040513d6000823e601f3d908101601f191682016040526109689190810190613577565b9050600081511180156109a1575060008460800151838151811061098e5761098e613405565b60200260200101516001600160801b0316115b15610ea85760005b8151811015610ea6578181815181106109c4576109c4613405565b602002602001015160600151610e9457600088886109e3866001613454565b8181106109f2576109f2613405565b9050602002016020810190610a079190613430565b6001600160a01b0316838381518110610a2257610a22613405565b6020026020010151602001516001600160a01b031663b7d19fc46040518163ffffffff1660e01b8152600401602060405180830381865afa158015610a6b573d6000803e3d6000fd5b505050506040513d601f19601f82011682018060405250810190610a8f919061346c565b6001600160a01b03161490507f00000000000000000000000000000000000000000000000000000000000000006001600160a01b0316632004b724848481518110610adc57610adc613405565b60200260200101516020015188608001518781518110610afe57610afe613405565b60209081029190910101516040516001600160e01b031960e085901b1681526001600160a01b0390921660048301526001600160801b0316602482015283151560448201526064016040805180830381865afa925050508015610b7e575060408051601f3d908101601f19168201909252610b7b9181019061365a565b60015b610b8757610e92565b6080880151610b97876001613454565b81518110610ba757610ba7613405565b60200260200101516001600160801b0316821115610e8f57610bc882612b0f565b6080890151610bd8886001613454565b81518110610be857610be8613405565b60200260200101906001600160801b031690816001600160801b031681525050848481518110610c1a57610c1a613405565b60200260200101516020015188602001518781518110610c3c57610c3c613405565b60200260200101906001600160a01b031690816001600160a01b031681525050848481518110610c6e57610c6e613405565b60200260200101516000015161ffff1688604001518781518110610c9457610c94613405565b602002602001018181525050600188606001518781518110610cb857610cb8613405565b60200260200101906002811115610cd157610cd161324d565b90816002811115610ce457610ce461324d565b815250506000858581518110610cfc57610cfc613405565b6020026020010151602001516001600160a01b0316631b05b83e6040518163ffffffff1660e01b8152600401606060405180830381865afa158015610d45573d6000803e3d6000fd5b505050506040513d601f19601f82011682018060405250810190610d69919061367e565b92505050610dcf828a60a001518981518110610d8757610d87613405565b60200260200101516001600160801b0316610da291906133d8565b610dab83612ba4565b8b604001518a81518110610dc157610dc1613405565b602002602001015187612bca565b60a08a0151610ddf896001613454565b81518110610def57610def613405565b60200260200101906001600160801b031690816001600160801b031681525050610e5789608001518881518110610e2857610e28613405565b60200260200101516001600160801b031683670de0b6b3a7640000610e4d91906134b8565b6106e391906136c2565b8960c001518881518110610e6d57610e6d613405565b60200260200101906001600160801b031690816001600160801b031681525050505b50505b505b80610e9e816136e4565b9150506109a9565b505b505b7f00000000000000000000000000000000000000000000000000000000000000006001600160a01b0316156115235760007f00000000000000000000000000000000000000000000000000000000000000006001600160a01b0316636622e0d7888885818110610f1c57610f1c613405565b9050602002016020810190610f319190613430565b8989610f3e876001613454565b818110610f4d57610f4d613405565b9050602002016020810190610f629190613430565b6040516001600160e01b031960e085901b1681526001600160a01b03928316600482015291166024820152604401600060405180830381865afa158015610fad573d6000803e3d6000fd5b505050506040513d6000823e601f3d908101601f19168201604052610fd591908101906136ff565b90506000815111801561100e5750600084608001518381518110610ffb57610ffb613405565b60200260200101516001600160801b0316115b156115215760005b815181101561151f5781818151811061103157611031613405565b60200260200101516060015161150d5760008888611050866001613454565b81811061105f5761105f613405565b90506020020160208101906110749190613430565b6001600160a01b031683838151811061108f5761108f613405565b6020026020010151602001516001600160a01b031663da10610c6040518163ffffffff1660e01b8152600401602060405180830381865afa1580156110d8573d6000803e3d6000fd5b505050506040513d601f19601f820116820180604052508101906110fc919061346c565b6001600160a01b03161490507f00000000000000000000000000000000000000000000000000000000000000006001600160a01b031663a0d376cf84848151811061114957611149613405565b6020026020010151602001518860800151878151811061116b5761116b613405565b60209081029190910101516040516001600160e01b031960e085901b1681526001600160a01b0390921660048301526001600160801b031660248201528315156044820152606401606060405180830381865afa9250505080156111ec575060408051601f3d908101601f191682019092526111e9918101906137dd565b60015b6111f55761150b565b6001600160801b03831615801561124457506080890151611217886001613454565b8151811061122757611227613405565b60200260200101516001600160801b0316826001600160801b0316115b15611507576080890151829061125b896001613454565b8151811061126b5761126b613405565b60200260200101906001600160801b031690816001600160801b03168152505085858151811061129d5761129d613405565b602002602001015160200151896020015188815181106112bf576112bf613405565b60200260200101906001600160a01b031690816001600160a01b0316815250508585815181106112f1576112f1613405565b60200260200101516000015161ffff168960400151888151811061131757611317613405565b60200260200101818152505060028960600151888151811061133b5761133b613405565b602002602001019060028111156113545761135461324d565b908160028111156113675761136761324d565b81525050600086868151811061137f5761137f613405565b6020026020010151602001516001600160a01b031663dbe65edc6040518163ffffffff1660e01b8152600401602060405180830381865afa1580156113c8573d6000803e3d6000fd5b505050506040513d601f19601f820116820180604052508101906113ec919061381f565b9050611448828b60a001518a8151811061140857611408613405565b602002602001015161141a9190613844565b6001600160801b0316828c604001518b8151811061143a5761143a613405565b602002602001015188612bca565b60a08b01516114588a6001613454565b8151811061146857611468613405565b60200260200101906001600160801b031690816001600160801b0316815250506114cf8a6080015189815181106114a1576114a1613405565b60200260200101516001600160801b0316836001600160801b0316670de0b6b3a7640000610e4d91906134b8565b8a60c0015189815181106114e5576114e5613405565b60200260200101906001600160801b031690816001600160801b031681525050505b5050505b505b80611517816136e4565b915050611016565b505b505b8061152d816136e4565b915050610458565b50509392505050565b61157e6040518060e00160405280606081526020016060815260200160608152602001606081526020016060815260200160608152602001606081525090565b60028310156115a057604051632973c80b60e01b815260040160405180910390fd5b8383808060200260200160405190810160405280939291908181526020018383602002808284376000920182905250938552506115e2915060019050856133d8565b90508067ffffffffffffffff8111156115fd576115fd6133ef565b604051908082528060200260200182016040528015611626578160200160208202803683370190505b5060208301528067ffffffffffffffff811115611645576116456133ef565b60405190808252806020026020018201604052801561166e578160200160208202803683370190505b5060408301528067ffffffffffffffff81111561168d5761168d6133ef565b6040519080825280602002602001820160405280156116b6578160200160208202803683370190505b5060608301528067ffffffffffffffff8111156116d5576116d56133ef565b6040519080825280602002602001820160405280156116fe578160200160208202803683370190505b5060c08301528367ffffffffffffffff81111561171d5761171d6133ef565b604051908082528060200260200182016040528015611746578160200160208202803683370190505b5060808301528367ffffffffffffffff811115611765576117656133ef565b60405190808252806020026020018201604052801561178e578160200160208202803683370190505b508260a0018190525082826080015182815181106117ae576117ae613405565b60200260200101906001600160801b031690816001600160801b031681525050828260a0015182815181106117e5576117e5613405565b6001600160801b0390921660209283029190910190910152805b8015611535577f00000000000000000000000000000000000000000000000000000000000000006001600160a01b031615611c19576001600160a01b037f00000000000000000000000000000000000000000000000000000000000000001663e6a4390587876118706001866133d8565b81811061187f5761187f613405565b90506020020160208101906118949190613430565b8888858181106118a6576118a6613405565b90506020020160208101906118bb9190613430565b6040516001600160e01b031960e085901b1681526001600160a01b03928316600482015291166024820152604401602060405180830381865afa158015611906573d6000803e3d6000fd5b505050506040513d601f19601f8201168201806040525081019061192a919061346c565b602084015161193a6001846133d8565b8151811061194a5761194a613405565b6001600160a01b039092166020928302919091018201528301516000906119726001846133d8565b8151811061198257611982613405565b60200260200101516001600160a01b0316141580156119c757506000836080015182815181106119b4576119b4613405565b60200260200101516001600160801b0316115b15611c1957600080611a4185602001516001856119e491906133d8565b815181106119f4576119f4613405565b60200260200101518989600187611a0b91906133d8565b818110611a1a57611a1a613405565b9050602002016020810190611a2f9190613430565b8a8a8781811061067c5761067c613405565b91509150600082118015611a7a575084608001518381518110611a6657611a66613405565b60200260200101516001600160801b031681115b15611c1657611ab36106e386608001518581518110611a9b57611a9b613405565b60200260200101516001600160801b03168484612c16565b6080860151611ac36001866133d8565b81518110611ad357611ad3613405565b60200260200101906001600160801b031690816001600160801b031681525050611b4a611b3f8660a001518581518110611b0f57611b0f613405565b60200260200101516103e8611b249190613489565b6001600160801b0316611b39846103e56134b8565b85612b3e565b6106e3906001613454565b60a0860151611b5a6001866133d8565b81518110611b6a57611b6a613405565b6001600160801b039092166020928302919091019091015260c0850151660aa87bee53800090611b9b6001866133d8565b81518110611bab57611bab613405565b6001600160801b03909216602092830291909101909101526060850151600090611bd66001866133d8565b81518110611be657611be6613405565b60200260200101906002811115611bff57611bff61324d565b90816002811115611c1257611c1261324d565b9052505b50505b7f00000000000000000000000000000000000000000000000000000000000000006001600160a01b0316156122cd5760006001600160a01b037f000000000000000000000000000000000000000000000000000000000000000016636622e0d78888611c866001876133d8565b818110611c9557611c95613405565b9050602002016020810190611caa9190613430565b898986818110611cbc57611cbc613405565b9050602002016020810190611cd19190613430565b6040516001600160e01b031960e085901b1681526001600160a01b03928316600482015291166024820152604401600060405180830381865afa158015611d1c573d6000803e3d6000fd5b505050506040513d6000823e601f3d908101601f19168201604052611d449190810190613577565b905060008151118015611d7d5750600084608001518381518110611d6a57611d6a613405565b60200260200101516001600160801b0316115b156122cb5760005b81518110156122c957818181518110611da057611da0613405565b6020026020010151606001516122b7576000888885818110611dc457611dc4613405565b9050602002016020810190611dd99190613430565b6001600160a01b0316838381518110611df457611df4613405565b6020026020010151602001516001600160a01b031663b7d19fc46040518163ffffffff1660e01b8152600401602060405180830381865afa158015611e3d573d6000803e3d6000fd5b505050506040513d601f19601f82011682018060405250810190611e61919061346c565b6001600160a01b03161490507f00000000000000000000000000000000000000000000000000000000000000006001600160a01b0316635bdd4b7c848481518110611eae57611eae613405565b60200260200101516020015188608001518781518110611ed057611ed0613405565b60209081029190910101516040516001600160e01b031960e085901b1681526001600160a01b0390921660048301526001600160801b0316602482015283151560448201526064016040805180830381865afa925050508015611f50575060408051601f3d908101601f19168201909252611f4d9181019061365a565b60015b611f59576122b5565b8115801590611fd157506080880151611f736001886133d8565b81518110611f8357611f83613405565b60200260200101516001600160801b0316821080611fd157506080880151611fac6001886133d8565b81518110611fbc57611fbc613405565b60200260200101516001600160801b03166000145b156122b257611fdf82612b0f565b6080890151611fef6001896133d8565b81518110611fff57611fff613405565b60200260200101906001600160801b031690816001600160801b03168152505084848151811061203157612031613405565b602002602001015160200151886020015160018861204f91906133d8565b8151811061205f5761205f613405565b60200260200101906001600160a01b031690816001600160a01b03168152505084848151811061209157612091613405565b60200260200101516000015161ffff1688604001516001886120b391906133d8565b815181106120c3576120c3613405565b602090810291909101015260608801516001906120e082896133d8565b815181106120f0576120f0613405565b602002602001019060028111156121095761210961324d565b9081600281111561211c5761211c61324d565b81525050600085858151811061213457612134613405565b6020026020010151602001516001600160a01b0316631b05b83e6040518163ffffffff1660e01b8152600401606060405180830381865afa15801561217d573d6000803e3d6000fd5b505050506040513d601f19601f820116820180604052508101906121a1919061367e565b925050506121ae82612b0f565b61220a8a60a0015189815181106121c7576121c7613405565b60200260200101516001600160801b0316838c6040015160018c6121eb91906133d8565b815181106121fb576121fb613405565b60200260200101518815612bca565b612214919061386c565b60a08a015161222460018a6133d8565b8151811061223457612234613405565b6001600160801b039092166020928302919091019091015260808901516122709061226060018a6133d8565b81518110610e2857610e28613405565b60c08a015161228060018a6133d8565b8151811061229057612290613405565b60200260200101906001600160801b031690816001600160801b031681525050505b50505b505b806122c1816136e4565b915050611d85565b505b505b7f00000000000000000000000000000000000000000000000000000000000000006001600160a01b0316156129985760006001600160a01b037f000000000000000000000000000000000000000000000000000000000000000016636622e0d7888861233a6001876133d8565b81811061234957612349613405565b905060200201602081019061235e9190613430565b89898681811061237057612370613405565b90506020020160208101906123859190613430565b6040516001600160e01b031960e085901b1681526001600160a01b03928316600482015291166024820152604401600060405180830381865afa1580156123d0573d6000803e3d6000fd5b505050506040513d6000823e601f3d908101601f191682016040526123f891908101906136ff565b905060008151118015612431575060008460800151838151811061241e5761241e613405565b60200260200101516001600160801b0316115b156129965760005b81518110156129945781818151811061245457612454613405565b60200260200101516060015161298257600088888581811061247857612478613405565b905060200201602081019061248d9190613430565b6001600160a01b03168383815181106124a8576124a8613405565b6020026020010151602001516001600160a01b031663da10610c6040518163ffffffff1660e01b8152600401602060405180830381865afa1580156124f1573d6000803e3d6000fd5b505050506040513d601f19601f82011682018060405250810190612515919061346c565b6001600160a01b03161490507f00000000000000000000000000000000000000000000000000000000000000006001600160a01b031663964f987c84848151811061256257612562613405565b6020026020010151602001518860800151878151811061258457612584613405565b60209081029190910101516040516001600160e01b031960e085901b1681526001600160a01b0390921660048301526001600160801b031660248201528315156044820152606401606060405180830381865afa925050508015612605575060408051601f3d908101601f19168201909252612602918101906137dd565b60015b61260e57612980565b6001600160801b03821615801561262d57506001600160801b03831615155b80156126ab575060808901516126446001896133d8565b8151811061265457612654613405565b60200260200101516001600160801b0316836001600160801b031610806126ab575060808901516126866001896133d8565b8151811061269657612696613405565b60200260200101516001600160801b03166000145b1561297c57608089015183906126c260018a6133d8565b815181106126d2576126d2613405565b60200260200101906001600160801b031690816001600160801b03168152505085858151811061270457612704613405565b602002602001015160200151896020015160018961272291906133d8565b8151811061273257612732613405565b60200260200101906001600160a01b031690816001600160a01b03168152505085858151811061276457612764613405565b60200260200101516000015161ffff16896040015160018961278691906133d8565b8151811061279657612796613405565b602090810291909101015260608901516002906127b460018a6133d8565b815181106127c4576127c4613405565b602002602001019060028111156127dd576127dd61324d565b908160028111156127f0576127f061324d565b81525050600086868151811061280857612808613405565b6020026020010151602001516001600160a01b031663dbe65edc6040518163ffffffff1660e01b8152600401602060405180830381865afa158015612851573d6000803e3d6000fd5b505050506040513d601f19601f82011682018060405250810190612875919061381f565b9050816128d48b60a001518a8151811061289157612891613405565b60200260200101516001600160801b0316838d6040015160018d6128b591906133d8565b815181106128c5576128c5613405565b60200260200101518915612bca565b6128de919061386c565b60a08b01516128ee60018b6133d8565b815181106128fe576128fe613405565b6001600160801b039092166020928302919091019091015260808a015161293a9061292a60018b6133d8565b815181106114a1576114a1613405565b60c08b015161294a60018b6133d8565b8151811061295a5761295a613405565b60200260200101906001600160801b031690816001600160801b031681525050505b5050505b505b8061298c816136e4565b915050612439565b505b505b806129a281613897565b9150506117ff565b60008060006129b98585612cb2565b509050600080876001600160a01b0316630902f1ac6040518163ffffffff1660e01b8152600401606060405180830381865afa1580156129fd573d6000803e3d6000fd5b505050506040513d601f19601f82011682018060405250810190612a2191906138cc565b506dffffffffffffffffffffffffffff1691506dffffffffffffffffffffffffffff169150826001600160a01b0316876001600160a01b031614612a66578082612a69565b81815b90999098509650505050505050565b600083612a985760405163b229ed3360e01b815260040160405180910390fd5b821580612aa3575081155b15612ac1576040516398c59a2960e01b815260040160405180910390fd5b6000612acf856103e56134b8565b90506000612add84836134b8565b9050600082612aee876103e86134b8565b612af89190613454565b9050612b0481836136c2565b979650505050505050565b806001600160801b0381168114612b3957604051632f45db3d60e21b815260040160405180910390fd5b919050565b600083612b5e5760405163b229ed3360e01b815260040160405180910390fd5b821580612b69575081155b15612b87576040516398c59a2960e01b815260040160405180910390fd5b82612b9283866134b8565b612b9c91906136c2565b949350505050565b8062ffffff81168114612b3957604051639b63641560e01b815260040160405180910390fd5b60008115612bf357612bec6106e3866080612be58888612d3e565b9190612d79565b9050612b9c565b612c0d6106e36080612c058787612d3e565b889190612de6565b95945050505050565b600083612c365760405163b229ed3360e01b815260040160405180910390fd5b821580612c41575081155b15612c5f576040516398c59a2960e01b815260040160405180910390fd5b6000612c6b85856134b8565b612c77906103e86134b8565b90506000612c8586856133d8565b612c91906103e56134b8565b9050612c9d81836136c2565b612ca8906001613454565b9695505050505050565b600080826001600160a01b0316846001600160a01b03161415612ce857604051630df4665760e21b815260040160405180910390fd5b826001600160a01b0316846001600160a01b031610612d08578284612d0b565b83835b90925090506001600160a01b038216612d37576040516304cda58760e51b815260040160405180910390fd5b9250929050565b600061271071ffff00000000000000000000000000000000608084901b1604600160801b0162ffffff8416627fffff1901612c0d8282612e10565b6000806000612d888686613073565b9150915081600014612d9e578360ff1682901c92505b801561153557600160ff85161b8110612dca57604051638e471a8960e01b815260040160405180910390fd5b8360ff166101000361ffff1681901b8301925050509392505050565b600060ff831684811b9061ffff6101008290031686901c90612ca89087906001901b868585613092565b6000808083612e285750600160801b915061306d9050565b50826000811215612e3a579015906000035b6210000081101561302a57600160801b9250846001600160801b03811115612e6457911591600019045b6001821615612e755792830260801c925b800260801c6002821615612e8b5792830260801c925b800260801c6004821615612ea15792830260801c925b800260801c6008821615612eb75792830260801c925b800260801c6010821615612ecd5792830260801c925b800260801c6020821615612ee35792830260801c925b800260801c6040821615612ef95792830260801c925b8002608090811c90821615612f105792830260801c925b800260801c610100821615612f275792830260801c925b800260801c610200821615612f3e5792830260801c925b800260801c610400821615612f555792830260801c925b800260801c610800821615612f6c5792830260801c925b800260801c611000821615612f835792830260801c925b800260801c612000821615612f9a5792830260801c925b800260801c614000821615612fb15792830260801c925b800260801c618000821615612fc85792830260801c925b800260801c62010000821615612fe05792830260801c925b800260801c62020000821615612ff85792830260801c925b800260801c620400008216156130105792830260801c925b800260801c620800008216156130285792830260801c925b505b8261305657604051631dba598d60e11b8152600481018690526024810185905260440160405180910390fd5b816130615782612c0d565b612c0d836000196136c2565b92915050565b6000806000198385098385029250828110838203039150509250929050565b6000816130b0578383816130a8576130a86136ac565b049050612c0d565b8382106130d0576040516313eae71560e01b815260040160405180910390fd5b600084868809600186198101871660008190038190049091018683119095039490940294038390049390931760029290940460038102831880820284030280820284030280820284030280820284030280820284030290810290920390910292909202949350505050565b6001600160801b038116811461315057600080fd5b50565b60008060006040848603121561316857600080fd5b833567ffffffffffffffff8082111561318057600080fd5b818601915086601f83011261319457600080fd5b8135818111156131a357600080fd5b8760208260051b85010111156131b857600080fd5b602092830195509350508401356131ce8161313b565b809150509250925092565b600081518084526020808501945080840160005b838110156132125781516001600160a01b0316875295820195908201906001016131ed565b509495945050505050565b600081518084526020808501945080840160005b8381101561321257815187529582019590820190600101613231565b634e487b7160e01b600052602160045260246000fd5b60008151808452602080850194508084016000805b848110156132b05782516003811061329e57634e487b7160e01b83526021600452602483fd5b88529683019691830191600101613278565b50959695505050505050565b600081518084526020808501945080840160005b838110156132125781516001600160801b0316875295820195908201906001016132d0565b602081526000825160e060208401526133126101008401826131d9565b90506020840151601f198085840301604086015261333083836131d9565b9250604086015191508085840301606086015261334d838361321d565b9250606086015191508085840301608086015261336a8383613263565b925060808601519150808584030160a086015261338783836132bc565b925060a08601519150808584030160c08601526133a483836132bc565b925060c08601519150808584030160e086015250612c0d82826132bc565b634e487b7160e01b600052601160045260246000fd5b6000828210156133ea576133ea6133c2565b500390565b634e487b7160e01b600052604160045260246000fd5b634e487b7160e01b600052603260045260246000fd5b6001600160a01b038116811461315057600080fd5b60006020828403121561344257600080fd5b813561344d8161341b565b9392505050565b60008219821115613467576134676133c2565b500190565b60006020828403121561347e57600080fd5b815161344d8161341b565b60006001600160801b03808316818516818304811182151516156134af576134af6133c2565b02949350505050565b60008160001904831182151516156134d2576134d26133c2565b500290565b6040516080810167ffffffffffffffff811182821017156134fa576134fa6133ef565b60405290565b604051601f8201601f1916810167ffffffffffffffff81118282101715613529576135296133ef565b604052919050565b600067ffffffffffffffff82111561354b5761354b6133ef565b5060051b60200190565b805161ffff81168114612b3957600080fd5b80518015158114612b3957600080fd5b6000602080838503121561358a57600080fd5b825167ffffffffffffffff8111156135a157600080fd5b8301601f810185136135b257600080fd5b80516135c56135c082613531565b613500565b81815260079190911b820183019083810190878311156135e457600080fd5b928401925b82841015612b0457608084890312156136025760008081fd5b61360a6134d7565b61361385613555565b8152858501516136228161341b565b818701526040613633868201613567565b908201526060613644868201613567565b90820152825260809390930192908401906135e9565b6000806040838503121561366d57600080fd5b505080516020909101519092909150565b60008060006060848603121561369357600080fd5b8351925060208401519150604084015190509250925092565b634e487b7160e01b600052601260045260246000fd5b6000826136df57634e487b7160e01b600052601260045260246000fd5b500490565b60006000198214156136f8576136f86133c2565b5060010190565b6000602080838503121561371257600080fd5b825167ffffffffffffffff81111561372957600080fd5b8301601f8101851361373a57600080fd5b80516137486135c082613531565b81815260079190911b8201830190838101908783111561376757600080fd5b928401925b82841015612b0457608084890312156137855760008081fd5b61378d6134d7565b61379685613555565b8152858501516137a58161341b565b8187015260406137b6868201613567565b9082015260606137c7868201613567565b908201528252608093909301929084019061376c565b6000806000606084860312156137f257600080fd5b83516137fd8161313b565b602085015190935061380e8161313b565b60408501519092506131ce8161313b565b60006020828403121561383157600080fd5b815162ffffff8116811461344d57600080fd5b60006001600160801b0383811690831681811015613864576138646133c2565b039392505050565b60006001600160801b0380831681851680830382111561388e5761388e6133c2565b01949350505050565b6000816138a6576138a66133c2565b506000190190565b80516dffffffffffffffffffffffffffff81168114612b3957600080fd5b6000806000606084860312156138e157600080fd5b6138ea846138ae565b92506138f8602085016138ae565b9150604084015163ffffffff811681146131ce57600080fdfea264697066735822122055fee454c4624b56e82fd3b0ea535869f7c7b7f59ab28432d349d648d35e7c7264736f6c634300080a0033",
    "linkReferences": {}
  },
  "methodIdentifiers": {
    "findBestPathFromAmountIn(address[],uint128)": "0f902a40",
    "findBestPathFromAmountOut(address[],uint128)": "59214226",
    "getFactoryV1()": "07da8f57",
    "getFactoryV2()": "ca56fc72",
    "getLegacyFactoryV2()": "8fe4b3ad",
    "getLegacyRouterV2()": "23229d6d",
    "getRouterV2()": "33141d3e"
  },
  "id": 29
}