{
  "abi": [
    {
      "inputs": [
        {
          "internalType": "contract ILBFactory",
          "name": "_factory",
          "type": "address"
        },
        {
          "internalType": "contract IJoeFactory",
          "name": "_oldFactory",
          "type": "address"
        },
        {
          "internalType": "contract IWAVAX",
          "name": "_wavax",
          "type": "address"
        }
      ],
      "stateMutability": "nonpayable",
      "type": "constructor"
    },
    {
      "inputs": [
        {
          "internalType": "uint256",
          "name": "bp",
          "type": "uint256"
        }
      ],
      "name": "BinHelper__BinStepOverflows",
      "type": "error"
    },
    {
      "inputs": [],
      "name": "BinHelper__IdOverflows",
      "type": "error"
    },
    {
      "inputs": [],
      "name": "JoeLibrary__InsufficientAmount",
      "type": "error"
    },
    {
      "inputs": [],
      "name": "JoeLibrary__InsufficientLiquidity",
      "type": "error"
    },
    {
      "inputs": [
        {
          "internalType": "uint256",
          "name": "amountXMin",
          "type": "uint256"
        },
        {
          "internalType": "uint256",
          "name": "amountX",
          "type": "uint256"
        },
        {
          "internalType": "uint256",
          "name": "amountYMin",
          "type": "uint256"
        },
        {
          "internalType": "uint256",
          "name": "amountY",
          "type": "uint256"
        }
      ],
      "name": "LBRouter__AmountSlippageCaught",
      "type": "error"
    },
    {
      "inputs": [
        {
          "internalType": "uint256",
          "name": "id",
          "type": "uint256"
        }
      ],
      "name": "LBRouter__BinReserveOverflows",
      "type": "error"
    },
    {
      "inputs": [],
      "name": "LBRouter__BrokenSwapSafetyCheck",
      "type": "error"
    },
    {
      "inputs": [
        {
          "internalType": "uint256",
          "name": "deadline",
          "type": "uint256"
        },
        {
          "internalType": "uint256",
          "name": "currentTimestamp",
          "type": "uint256"
        }
      ],
      "name": "LBRouter__DeadlineExceeded",
      "type": "error"
    },
    {
      "inputs": [
        {
          "internalType": "address",
          "name": "recipient",
          "type": "address"
        },
        {
          "internalType": "uint256",
          "name": "amount",
          "type": "uint256"
        }
      ],
      "name": "LBRouter__FailedToSendAVAX",
      "type": "error"
    },
    {
      "inputs": [
        {
          "internalType": "uint256",
          "name": "idDesired",
          "type": "uint256"
        },
        {
          "internalType": "uint256",
          "name": "idSlippage",
          "type": "uint256"
        }
      ],
      "name": "LBRouter__IdDesiredOverflows",
      "type": "error"
    },
    {
      "inputs": [
        {
          "internalType": "int256",
          "name": "id",
          "type": "int256"
        }
      ],
      "name": "LBRouter__IdOverflows",
      "type": "error"
    },
    {
      "inputs": [
        {
          "internalType": "uint256",
          "name": "activeIdDesired",
          "type": "uint256"
        },
        {
          "internalType": "uint256",
          "name": "idSlippage",
          "type": "uint256"
        },
        {
          "internalType": "uint256",
          "name": "activeId",
          "type": "uint256"
        }
      ],
      "name": "LBRouter__IdSlippageCaught",
      "type": "error"
    },
    {
      "inputs": [
        {
          "internalType": "uint256",
          "name": "amountOutMin",
          "type": "uint256"
        },
        {
          "internalType": "uint256",
          "name": "amountOut",
          "type": "uint256"
        }
      ],
      "name": "LBRouter__InsufficientAmountOut",
      "type": "error"
    },
    {
      "inputs": [
        {
          "internalType": "address",
          "name": "wrongToken",
          "type": "address"
        }
      ],
      "name": "LBRouter__InvalidTokenPath",
      "type": "error"
    },
    {
      "inputs": [],
      "name": "LBRouter__LengthsMismatch",
      "type": "error"
    },
    {
      "inputs": [
        {
          "internalType": "uint256",
          "name": "amountInMax",
          "type": "uint256"
        },
        {
          "internalType": "uint256",
          "name": "amountIn",
          "type": "uint256"
        }
      ],
      "name": "LBRouter__MaxAmountInExceeded",
      "type": "error"
    },
    {
      "inputs": [],
      "name": "LBRouter__NotFactoryOwner",
      "type": "error"
    },
    {
      "inputs": [
        {
          "internalType": "address",
          "name": "tokenX",
          "type": "address"
        },
        {
          "internalType": "address",
          "name": "tokenY",
          "type": "address"
        },
        {
          "internalType": "uint256",
          "name": "binStep",
          "type": "uint256"
        }
      ],
      "name": "LBRouter__PairNotCreated",
      "type": "error"
    },
    {
      "inputs": [],
      "name": "LBRouter__SenderIsNotWAVAX",
      "type": "error"
    },
    {
      "inputs": [
        {
          "internalType": "uint256",
          "name": "id",
          "type": "uint256"
        }
      ],
      "name": "LBRouter__SwapOverflows",
      "type": "error"
    },
    {
      "inputs": [
        {
          "internalType": "uint256",
          "name": "excess",
          "type": "uint256"
        }
      ],
      "name": "LBRouter__TooMuchTokensIn",
      "type": "error"
    },
    {
      "inputs": [
        {
          "internalType": "uint256",
          "name": "amount",
          "type": "uint256"
        },
        {
          "internalType": "uint256",
          "name": "reserve",
          "type": "uint256"
        }
      ],
      "name": "LBRouter__WrongAmounts",
      "type": "error"
    },
    {
      "inputs": [
        {
          "internalType": "address",
          "name": "tokenX",
          "type": "address"
        },
        {
          "internalType": "address",
          "name": "tokenY",
          "type": "address"
        },
        {
          "internalType": "uint256",
          "name": "amountX",
          "type": "uint256"
        },
        {
          "internalType": "uint256",
          "name": "amountY",
          "type": "uint256"
        },
        {
          "internalType": "uint256",
          "name": "msgValue",
          "type": "uint256"
        }
      ],
      "name": "LBRouter__WrongAvaxLiquidityParameters",
      "type": "error"
    },
    {
      "inputs": [],
      "name": "LBRouter__WrongTokenOrder",
      "type": "error"
    },
    {
      "inputs": [],
      "name": "Math128x128__LogUnderflow",
      "type": "error"
    },
    {
      "inputs": [
        {
          "internalType": "uint256",
          "name": "x",
          "type": "uint256"
        },
        {
          "internalType": "int256",
          "name": "y",
          "type": "int256"
        }
      ],
      "name": "Math128x128__PowerUnderflow",
      "type": "error"
    },
    {
      "inputs": [
        {
          "internalType": "uint256",
          "name": "prod1",
          "type": "uint256"
        },
        {
          "internalType": "uint256",
          "name": "denominator",
          "type": "uint256"
        }
      ],
      "name": "Math512Bits__MulDivOverflow",
      "type": "error"
    },
    {
      "inputs": [
        {
          "internalType": "uint256",
          "name": "prod1",
          "type": "uint256"
        },
        {
          "internalType": "uint256",
          "name": "offset",
          "type": "uint256"
        }
      ],
      "name": "Math512Bits__MulShiftOverflow",
      "type": "error"
    },
    {
      "inputs": [
        {
          "internalType": "uint256",
          "name": "offset",
          "type": "uint256"
        }
      ],
      "name": "Math512Bits__OffsetOverflows",
      "type": "error"
    },
    {
      "inputs": [
        {
          "internalType": "uint256",
          "name": "x",
          "type": "uint256"
        }
      ],
      "name": "SafeCast__Exceeds128Bits",
      "type": "error"
    },
    {
      "inputs": [
        {
          "internalType": "uint256",
          "name": "x",
          "type": "uint256"
        }
      ],
      "name": "SafeCast__Exceeds40Bits",
      "type": "error"
    },
    {
      "inputs": [],
      "name": "TokenHelper__CallFailed",
      "type": "error"
    },
    {
      "inputs": [],
      "name": "TokenHelper__NonContract",
      "type": "error"
    },
    {
      "inputs": [],
      "name": "TokenHelper__TransferFailed",
      "type": "error"
    },
    {
      "inputs": [
        {
          "components": [
            {
              "internalType": "contract IERC20",
              "name": "tokenX",
              "type": "address"
            },
            {
              "internalType": "contract IERC20",
              "name": "tokenY",
              "type": "address"
            },
            {
              "internalType": "uint256",
              "name": "binStep",
              "type": "uint256"
            },
            {
              "internalType": "uint256",
              "name": "amountX",
              "type": "uint256"
            },
            {
              "internalType": "uint256",
              "name": "amountY",
              "type": "uint256"
            },
            {
              "internalType": "uint256",
              "name": "amountXMin",
              "type": "uint256"
            },
            {
              "internalType": "uint256",
              "name": "amountYMin",
              "type": "uint256"
            },
            {
              "internalType": "uint256",
              "name": "activeIdDesired",
              "type": "uint256"
            },
            {
              "internalType": "uint256",
              "name": "idSlippage",
              "type": "uint256"
            },
            {
              "internalType": "int256[]",
              "name": "deltaIds",
              "type": "int256[]"
            },
            {
              "internalType": "uint256[]",
              "name": "distributionX",
              "type": "uint256[]"
            },
            {
              "internalType": "uint256[]",
              "name": "distributionY",
              "type": "uint256[]"
            },
            {
              "internalType": "address",
              "name": "to",
              "type": "address"
            },
            {
              "internalType": "uint256",
              "name": "deadline",
              "type": "uint256"
            }
          ],
          "internalType": "struct ILBRouter.LiquidityParameters",
          "name": "_liquidityParameters",
          "type": "tuple"
        }
      ],
      "name": "addLiquidity",
      "outputs": [
        {
          "internalType": "uint256[]",
          "name": "depositIds",
          "type": "uint256[]"
        },
        {
          "internalType": "uint256[]",
          "name": "liquidityMinted",
          "type": "uint256[]"
        }
      ],
      "stateMutability": "nonpayable",
      "type": "function"
    },
    {
      "inputs": [
        {
          "components": [
            {
              "internalType": "contract IERC20",
              "name": "tokenX",
              "type": "address"
            },
            {
              "internalType": "contract IERC20",
              "name": "tokenY",
              "type": "address"
            },
            {
              "internalType": "uint256",
              "name": "binStep",
              "type": "uint256"
            },
            {
              "internalType": "uint256",
              "name": "amountX",
              "type": "uint256"
            },
            {
              "internalType": "uint256",
              "name": "amountY",
              "type": "uint256"
            },
            {
              "internalType": "uint256",
              "name": "amountXMin",
              "type": "uint256"
            },
            {
              "internalType": "uint256",
              "name": "amountYMin",
              "type": "uint256"
            },
            {
              "internalType": "uint256",
              "name": "activeIdDesired",
              "type": "uint256"
            },
            {
              "internalType": "uint256",
              "name": "idSlippage",
              "type": "uint256"
            },
            {
              "internalType": "int256[]",
              "name": "deltaIds",
              "type": "int256[]"
            },
            {
              "internalType": "uint256[]",
              "name": "distributionX",
              "type": "uint256[]"
            },
            {
              "internalType": "uint256[]",
              "name": "distributionY",
              "type": "uint256[]"
            },
            {
              "internalType": "address",
              "name": "to",
              "type": "address"
            },
            {
              "internalType": "uint256",
              "name": "deadline",
              "type": "uint256"
            }
          ],
          "internalType": "struct ILBRouter.LiquidityParameters",
          "name": "_liquidityParameters",
          "type": "tuple"
        }
      ],
      "name": "addLiquidityAVAX",
      "outputs": [
        {
          "internalType": "uint256[]",
          "name": "depositIds",
          "type": "uint256[]"
        },
        {
          "internalType": "uint256[]",
          "name": "liquidityMinted",
          "type": "uint256[]"
        }
      ],
      "stateMutability": "payable",
      "type": "function"
    },
    {
      "inputs": [
        {
          "internalType": "contract IERC20",
          "name": "_tokenX",
          "type": "address"
        },
        {
          "internalType": "contract IERC20",
          "name": "_tokenY",
          "type": "address"
        },
        {
          "internalType": "uint24",
          "name": "_activeId",
          "type": "uint24"
        },
        {
          "internalType": "uint16",
          "name": "_binStep",
          "type": "uint16"
        }
      ],
      "name": "createLBPair",
      "outputs": [
        {
          "internalType": "contract ILBPair",
          "name": "pair",
          "type": "address"
        }
      ],
      "stateMutability": "nonpayable",
      "type": "function"
    },
    {
      "inputs": [],
      "name": "factory",
      "outputs": [
        {
          "internalType": "contract ILBFactory",
          "name": "",
          "type": "address"
        }
      ],
      "stateMutability": "view",
      "type": "function"
    },
    {
      "inputs": [
        {
          "internalType": "contract ILBPair",
          "name": "_LBPair",
          "type": "address"
        },
        {
          "internalType": "uint256",
          "name": "_price",
          "type": "uint256"
        }
      ],
      "name": "getIdFromPrice",
      "outputs": [
        {
          "internalType": "uint24",
          "name": "",
          "type": "uint24"
        }
      ],
      "stateMutability": "view",
      "type": "function"
    },
    {
      "inputs": [
        {
          "internalType": "contract ILBPair",
          "name": "_LBPair",
          "type": "address"
        },
        {
          "internalType": "uint24",
          "name": "_id",
          "type": "uint24"
        }
      ],
      "name": "getPriceFromId",
      "outputs": [
        {
          "internalType": "uint256",
          "name": "",
          "type": "uint256"
        }
      ],
      "stateMutability": "view",
      "type": "function"
    },
    {
      "inputs": [
        {
          "internalType": "contract ILBPair",
          "name": "_LBPair",
          "type": "address"
        },
        {
          "internalType": "uint256",
          "name": "_amountOut",
          "type": "uint256"
        },
        {
          "internalType": "bool",
          "name": "_swapForY",
          "type": "bool"
        }
      ],
      "name": "getSwapIn",
      "outputs": [
        {
          "internalType": "uint256",
          "name": "amountIn",
          "type": "uint256"
        },
        {
          "internalType": "uint256",
          "name": "feesIn",
          "type": "uint256"
        }
      ],
      "stateMutability": "view",
      "type": "function"
    },
    {
      "inputs": [
        {
          "internalType": "contract ILBPair",
          "name": "_LBPair",
          "type": "address"
        },
        {
          "internalType": "uint256",
          "name": "_amountIn",
          "type": "uint256"
        },
        {
          "internalType": "bool",
          "name": "_swapForY",
          "type": "bool"
        }
      ],
      "name": "getSwapOut",
      "outputs": [
        {
          "internalType": "uint256",
          "name": "amountOut",
          "type": "uint256"
        },
        {
          "internalType": "uint256",
          "name": "feesIn",
          "type": "uint256"
        }
      ],
      "stateMutability": "view",
      "type": "function"
    },
    {
      "inputs": [],
      "name": "oldFactory",
      "outputs": [
        {
          "internalType": "contract IJoeFactory",
          "name": "",
          "type": "address"
        }
      ],
      "stateMutability": "view",
      "type": "function"
    },
    {
      "inputs": [
        {
          "internalType": "contract IERC20",
          "name": "_tokenX",
          "type": "address"
        },
        {
          "internalType": "contract IERC20",
          "name": "_tokenY",
          "type": "address"
        },
        {
          "internalType": "uint16",
          "name": "_binStep",
          "type": "uint16"
        },
        {
          "internalType": "uint256",
          "name": "_amountXMin",
          "type": "uint256"
        },
        {
          "internalType": "uint256",
          "name": "_amountYMin",
          "type": "uint256"
        },
        {
          "internalType": "uint256[]",
          "name": "_ids",
          "type": "uint256[]"
        },
        {
          "internalType": "uint256[]",
          "name": "_amounts",
          "type": "uint256[]"
        },
        {
          "internalType": "address",
          "name": "_to",
          "type": "address"
        },
        {
          "internalType": "uint256",
          "name": "_deadline",
          "type": "uint256"
        }
      ],
      "name": "removeLiquidity",
      "outputs": [
        {
          "internalType": "uint256",
          "name": "amountX",
          "type": "uint256"
        },
        {
          "internalType": "uint256",
          "name": "amountY",
          "type": "uint256"
        }
      ],
      "stateMutability": "nonpayable",
      "type": "function"
    },
    {
      "inputs": [
        {
          "internalType": "contract IERC20",
          "name": "_token",
          "type": "address"
        },
        {
          "internalType": "uint16",
          "name": "_binStep",
          "type": "uint16"
        },
        {
          "internalType": "uint256",
          "name": "_amountTokenMin",
          "type": "uint256"
        },
        {
          "internalType": "uint256",
          "name": "_amountAVAXMin",
          "type": "uint256"
        },
        {
          "internalType": "uint256[]",
          "name": "_ids",
          "type": "uint256[]"
        },
        {
          "internalType": "uint256[]",
          "name": "_amounts",
          "type": "uint256[]"
        },
        {
          "internalType": "address payable",
          "name": "_to",
          "type": "address"
        },
        {
          "internalType": "uint256",
          "name": "_deadline",
          "type": "uint256"
        }
      ],
      "name": "removeLiquidityAVAX",
      "outputs": [
        {
          "internalType": "uint256",
          "name": "amountToken",
          "type": "uint256"
        },
        {
          "internalType": "uint256",
          "name": "amountAVAX",
          "type": "uint256"
        }
      ],
      "stateMutability": "nonpayable",
      "type": "function"
    },
    {
      "inputs": [
        {
          "internalType": "uint256",
          "name": "_amountOut",
          "type": "uint256"
        },
        {
          "internalType": "uint256[]",
          "name": "_pairBinSteps",
          "type": "uint256[]"
        },
        {
          "internalType": "contract IERC20[]",
          "name": "_tokenPath",
          "type": "address[]"
        },
        {
          "internalType": "address",
          "name": "_to",
          "type": "address"
        },
        {
          "internalType": "uint256",
          "name": "_deadline",
          "type": "uint256"
        }
      ],
      "name": "swapAVAXForExactTokens",
      "outputs": [
        {
          "internalType": "uint256[]",
          "name": "amountsIn",
          "type": "uint256[]"
        }
      ],
      "stateMutability": "payable",
      "type": "function"
    },
    {
      "inputs": [
        {
          "internalType": "uint256",
          "name": "_amountOutMin",
          "type": "uint256"
        },
        {
          "internalType": "uint256[]",
          "name": "_pairBinSteps",
          "type": "uint256[]"
        },
        {
          "internalType": "contract IERC20[]",
          "name": "_tokenPath",
          "type": "address[]"
        },
        {
          "internalType": "address",
          "name": "_to",
          "type": "address"
        },
        {
          "internalType": "uint256",
          "name": "_deadline",
          "type": "uint256"
        }
      ],
      "name": "swapExactAVAXForTokens",
      "outputs": [
        {
          "internalType": "uint256",
          "name": "amountOut",
          "type": "uint256"
        }
      ],
      "stateMutability": "payable",
      "type": "function"
    },
    {
      "inputs": [
        {
          "internalType": "uint256",
          "name": "_amountOutMin",
          "type": "uint256"
        },
        {
          "internalType": "uint256[]",
          "name": "_pairBinSteps",
          "type": "uint256[]"
        },
        {
          "internalType": "contract IERC20[]",
          "name": "_tokenPath",
          "type": "address[]"
        },
        {
          "internalType": "address",
          "name": "_to",
          "type": "address"
        },
        {
          "internalType": "uint256",
          "name": "_deadline",
          "type": "uint256"
        }
      ],
      "name": "swapExactAVAXForTokensSupportingFeeOnTransferTokens",
      "outputs": [
        {
          "internalType": "uint256",
          "name": "amountOut",
          "type": "uint256"
        }
      ],
      "stateMutability": "payable",
      "type": "function"
    },
    {
      "inputs": [
        {
          "internalType": "uint256",
          "name": "_amountIn",
          "type": "uint256"
        },
        {
          "internalType": "uint256",
          "name": "_amountOutMinAVAX",
          "type": "uint256"
        },
        {
          "internalType": "uint256[]",
          "name": "_pairBinSteps",
          "type": "uint256[]"
        },
        {
          "internalType": "contract IERC20[]",
          "name": "_tokenPath",
          "type": "address[]"
        },
        {
          "internalType": "address payable",
          "name": "_to",
          "type": "address"
        },
        {
          "internalType": "uint256",
          "name": "_deadline",
          "type": "uint256"
        }
      ],
      "name": "swapExactTokensForAVAX",
      "outputs": [
        {
          "internalType": "uint256",
          "name": "amountOut",
          "type": "uint256"
        }
      ],
      "stateMutability": "nonpayable",
      "type": "function"
    },
    {
      "inputs": [
        {
          "internalType": "uint256",
          "name": "_amountIn",
          "type": "uint256"
        },
        {
          "internalType": "uint256",
          "name": "_amountOutMinAVAX",
          "type": "uint256"
        },
        {
          "internalType": "uint256[]",
          "name": "_pairBinSteps",
          "type": "uint256[]"
        },
        {
          "internalType": "contract IERC20[]",
          "name": "_tokenPath",
          "type": "address[]"
        },
        {
          "internalType": "address payable",
          "name": "_to",
          "type": "address"
        },
        {
          "internalType": "uint256",
          "name": "_deadline",
          "type": "uint256"
        }
      ],
      "name": "swapExactTokensForAVAXSupportingFeeOnTransferTokens",
      "outputs": [
        {
          "internalType": "uint256",
          "name": "amountOut",
          "type": "uint256"
        }
      ],
      "stateMutability": "nonpayable",
      "type": "function"
    },
    {
      "inputs": [
        {
          "internalType": "uint256",
          "name": "_amountIn",
          "type": "uint256"
        },
        {
          "internalType": "uint256",
          "name": "_amountOutMin",
          "type": "uint256"
        },
        {
          "internalType": "uint256[]",
          "name": "_pairBinSteps",
          "type": "uint256[]"
        },
        {
          "internalType": "contract IERC20[]",
          "name": "_tokenPath",
          "type": "address[]"
        },
        {
          "internalType": "address",
          "name": "_to",
          "type": "address"
        },
        {
          "internalType": "uint256",
          "name": "_deadline",
          "type": "uint256"
        }
      ],
      "name": "swapExactTokensForTokens",
      "outputs": [
        {
          "internalType": "uint256",
          "name": "amountOut",
          "type": "uint256"
        }
      ],
      "stateMutability": "nonpayable",
      "type": "function"
    },
    {
      "inputs": [
        {
          "internalType": "uint256",
          "name": "_amountIn",
          "type": "uint256"
        },
        {
          "internalType": "uint256",
          "name": "_amountOutMin",
          "type": "uint256"
        },
        {
          "internalType": "uint256[]",
          "name": "_pairBinSteps",
          "type": "uint256[]"
        },
        {
          "internalType": "contract IERC20[]",
          "name": "_tokenPath",
          "type": "address[]"
        },
        {
          "internalType": "address",
          "name": "_to",
          "type": "address"
        },
        {
          "internalType": "uint256",
          "name": "_deadline",
          "type": "uint256"
        }
      ],
      "name": "swapExactTokensForTokensSupportingFeeOnTransferTokens",
      "outputs": [
        {
          "internalType": "uint256",
          "name": "amountOut",
          "type": "uint256"
        }
      ],
      "stateMutability": "nonpayable",
      "type": "function"
    },
    {
      "inputs": [
        {
          "internalType": "uint256",
          "name": "_amountAVAXOut",
          "type": "uint256"
        },
        {
          "internalType": "uint256",
          "name": "_amountInMax",
          "type": "uint256"
        },
        {
          "internalType": "uint256[]",
          "name": "_pairBinSteps",
          "type": "uint256[]"
        },
        {
          "internalType": "contract IERC20[]",
          "name": "_tokenPath",
          "type": "address[]"
        },
        {
          "internalType": "address payable",
          "name": "_to",
          "type": "address"
        },
        {
          "internalType": "uint256",
          "name": "_deadline",
          "type": "uint256"
        }
      ],
      "name": "swapTokensForExactAVAX",
      "outputs": [
        {
          "internalType": "uint256[]",
          "name": "amountsIn",
          "type": "uint256[]"
        }
      ],
      "stateMutability": "nonpayable",
      "type": "function"
    },
    {
      "inputs": [
        {
          "internalType": "uint256",
          "name": "_amountOut",
          "type": "uint256"
        },
        {
          "internalType": "uint256",
          "name": "_amountInMax",
          "type": "uint256"
        },
        {
          "internalType": "uint256[]",
          "name": "_pairBinSteps",
          "type": "uint256[]"
        },
        {
          "internalType": "contract IERC20[]",
          "name": "_tokenPath",
          "type": "address[]"
        },
        {
          "internalType": "address",
          "name": "_to",
          "type": "address"
        },
        {
          "internalType": "uint256",
          "name": "_deadline",
          "type": "uint256"
        }
      ],
      "name": "swapTokensForExactTokens",
      "outputs": [
        {
          "internalType": "uint256[]",
          "name": "amountsIn",
          "type": "uint256[]"
        }
      ],
      "stateMutability": "nonpayable",
      "type": "function"
    },
    {
      "inputs": [
        {
          "internalType": "contract IERC20",
          "name": "_token",
          "type": "address"
        },
        {
          "internalType": "address",
          "name": "_to",
          "type": "address"
        },
        {
          "internalType": "uint256",
          "name": "_amount",
          "type": "uint256"
        }
      ],
      "name": "sweep",
      "outputs": [],
      "stateMutability": "nonpayable",
      "type": "function"
    },
    {
      "inputs": [
        {
          "internalType": "contract ILBToken",
          "name": "_lbToken",
          "type": "address"
        },
        {
          "internalType": "address",
          "name": "_to",
          "type": "address"
        },
        {
          "internalType": "uint256[]",
          "name": "_ids",
          "type": "uint256[]"
        },
        {
          "internalType": "uint256[]",
          "name": "_amounts",
          "type": "uint256[]"
        }
      ],
      "name": "sweepLBToken",
      "outputs": [],
      "stateMutability": "nonpayable",
      "type": "function"
    },
    {
      "inputs": [],
      "name": "wavax",
      "outputs": [
        {
          "internalType": "contract IWAVAX",
          "name": "",
          "type": "address"
        }
      ],
      "stateMutability": "view",
      "type": "function"
    },
    {
      "stateMutability": "payable",
      "type": "receive"
    }
  ],
  "bytecode": {
    "object": "0x60e06040523480156200001157600080fd5b5060405162005ae038038062005ae083398101604081905262000034916200006b565b6001600160a01b0392831660805290821660a0521660c052620000bf565b6001600160a01b03811681146200006857600080fd5b50565b6000806000606084860312156200008157600080fd5b83516200008e8162000052565b6020850151909350620000a18162000052565b6040850151909250620000b48162000052565b809150509250925092565b60805160a05160c0516159496200019760003960008181610194015281816101eb01528181610ac301528181610c3d01528181610e640152818161170a0152818161185f01528181611948015281816119db01528181611a9e01528181611b5e01528181611d1101528181611dab01528181611e3501528181612332015281816123b0015281816125610152818161263a01528181612eac0152612f2a01526000818161023c01526143200152600081816104390152818161139001528181611533015281816121510152613b7301526159496000f3fe6080604052600436106101845760003560e01c80636d3420ed116100d6578063d0e380f21161007f578063ea8f43d811610059578063ea8f43d8146104c9578063f96fe925146104dc578063fb321c701461051057600080fd5b8063d0e380f21461045b578063e324a3e41461047b578063e9361c08146104a957600080fd5b8063bcb1c957116100b0578063bcb1c957146103e7578063c22159b614610407578063c45a01551461042757600080fd5b80636d3420ed146103875780639a17e820146103a7578063a7b856d3146103c757600080fd5b806342f564a01161013857806362c067671161011257806362c0676714610327578063659ac74b146103475780636d0ff4951461036757600080fd5b806342f564a0146102d4578063440830bd146102f45780635bdd4b7c1461030757600080fd5b80632004b724116101695780632004b7241461025e578063212a1d9414610293578063264bb94e146102c157600080fd5b8063117be4c2146101d95780631bd6dfe11461022a57600080fd5b366101d457336001600160a01b037f000000000000000000000000000000000000000000000000000000000000000016146101d2576040516310d0bef760e31b815260040160405180910390fd5b005b600080fd5b3480156101e557600080fd5b5061020d7f000000000000000000000000000000000000000000000000000000000000000081565b6040516001600160a01b0390911681526020015b60405180910390f35b34801561023657600080fd5b5061020d7f000000000000000000000000000000000000000000000000000000000000000081565b34801561026a57600080fd5b5061027e610279366004614bc9565b610530565b60408051928352602083019190915201610221565b34801561029f57600080fd5b506102b36102ae366004614d7a565b610839565b604051908152602001610221565b6102b36102cf366004614e0e565b610a57565b6102e76102e2366004614e0e565b610bd1565b6040516102219190614ed1565b6102b3610302366004614e0e565b610df8565b34801561031357600080fd5b5061027e610322366004614bc9565b61103d565b34801561033357600080fd5b506101d2610342366004614ee4565b61138e565b34801561035357600080fd5b5061020d610362366004614f51565b6114f4565b34801561037357600080fd5b506102b3610382366004614d7a565b6115ab565b34801561039357600080fd5b506102e76103a2366004614d7a565b61169e565b3480156103b357600080fd5b506102b36103c2366004614d7a565b6118dc565b3480156103d357600080fd5b506102e76103e2366004614d7a565b611bcc565b3480156103f357600080fd5b5061027e610402366004614fad565b611cdb565b34801561041357600080fd5b5061027e610422366004615068565b611eb3565b34801561043357600080fd5b5061020d7f000000000000000000000000000000000000000000000000000000000000000081565b34801561046757600080fd5b506102b3610476366004615130565b611fa7565b34801561048757600080fd5b5061049b610496366004615169565b612028565b6040516102219291906151a5565b3480156104b557600080fd5b506101d26104c4366004615216565b61214f565b61049b6104d7366004615169565b612272565b3480156104e857600080fd5b506104fc6104f73660046152ab565b612482565b60405162ffffff9091168152602001610221565b34801561051c57600080fd5b506102b361052b366004614d7a565b6124f5565b6000806000856001600160a01b0316631b05b83e6040518163ffffffff1660e01b8152600401606060405180830381865afa158015610573573d6000803e3d6000fd5b505050506040513d601f19601f8201168201806040525081019061059791906152d7565b925050506000866001600160a01b03166398c7adf36040518163ffffffff1660e01b815260040161018060405180830381865afa1580156105dc573d6000803e3d6000fd5b505050506040513d601f19601f820116820180604052508101906106009190615330565b905061060c81836126a8565b6040805160808101825260008082526020820181905291810182905260608101919091525b604051630157d2d160e31b815262ffffff8416600482015260009081906001600160a01b038b1690630abe9688906024016040805180830381865afa15801561067e573d6000803e3d6000fd5b505050506040513d601f19601f820116820180604052508101906106a2919061541c565b604080516080810182526001600160701b03938416808252939092166020830152600090820181905260608201529350151591508190506106ef575060208101516001600160701b031615155b1561078557600080806107058486888c8e612765565b919450925090506001600160701b0383111561073c57604051633d9af4e160e11b8152600481018790526024015b60405180910390fd5b8051610751906001600160801b031684615456565b61075b908b61546e565b8151909a50610773906001600160801b031688615456565b965061077f8289615456565b97505050505b861561080c57604051638f919a8360e01b815262ffffff8416600482015286151560248201526001600160a01b03891690638f919a8390604401602060405180830381865afa1580156107dc573d6000803e3d6000fd5b505050506040513d601f19601f820116820180604052508101906108009190615485565b62ffffff169250610631565b861561082e576040516349cda5cd60e11b815260048101889052602401610733565b505050935093915050565b600081804211156108665760405163dae7ca7d60e01b815260048101829052426024820152604401610733565b8585815160001480610885575080518251610882906001615456565b14155b156108a35760405163b91b4d4d60e01b815260040160405180910390fd5b60006108af8989612889565b90506000888251815181106108c6576108c66154a2565b60209081029190910101516040516370a0823160e01b81526001600160a01b038a811660048301529192506000918316906370a0823190602401602060405180830381865afa15801561091d573d6000803e3d6000fd5b505050506040513d601f19601f8201168201806040525081019061094191906154b8565b9050610997338460008151811061095a5761095a6154a2565b60200260200101518f8d600081518110610976576109766154a2565b60200260200101516001600160a01b031661297e909392919063ffffffff16565b6109a3838c8c8c612a3f565b6040516370a0823160e01b81526001600160a01b038a811660048301528291908416906370a0823190602401602060405180830381865afa1580156109ec573d6000803e3d6000fd5b505050506040513d601f19601f82011682018060405250810190610a1091906154b8565b610a1a919061546e565b9650868c1115610a47576040516313fab00360e21b8152600481018d905260248101889052604401610733565b5050505050509695505050505050565b60008180421115610a845760405163dae7ca7d60e01b815260048101829052426024820152604401610733565b8585815160001480610aa3575080518251610aa0906001615456565b14155b15610ac15760405163b91b4d4d60e01b815260040160405180910390fd5b7f00000000000000000000000000000000000000000000000000000000000000006001600160a01b031687600081518110610afe57610afe6154a2565b60200260200101516001600160a01b031614610b585786600081518110610b2757610b276154a2565b602002602001015160405163cfec0e0160e01b815260040161073391906001600160a01b0391909116815260200190565b6000610b648989612889565b9050610b8a81600081518110610b7c57610b7c6154a2565b602002602001015134612eaa565b610b9734828b8b8b612f59565b9450848a1115610bc4576040516313fab00360e21b8152600481018b905260248101869052604401610733565b5050505095945050505050565b60608180421115610bfe5760405163dae7ca7d60e01b815260048101829052426024820152604401610733565b8585815160001480610c1d575080518251610c1a906001615456565b14155b15610c3b5760405163b91b4d4d60e01b815260040160405180910390fd5b7f00000000000000000000000000000000000000000000000000000000000000006001600160a01b031687600081518110610c7857610c786154a2565b60200260200101516001600160a01b031614610ca15786600081518110610b2757610b276154a2565b6000610cad8989612889565b9050610cbb89828a8d6132da565b94503485600081518110610cd157610cd16154a2565b60200260200101511115610d1f573485600081518110610cf357610cf36154a2565b602002602001015160405163194ee21960e31b8152600401610733929190918252602082015260400190565b610d5d81600081518110610d3557610d356154a2565b602002602001015186600081518110610d5057610d506154a2565b6020026020010151612eaa565b6000610d6c828b8b898c6135c5565b90508a811015610d99576040516313fab00360e21b8152600481018c905260248101829052604401610733565b85600081518110610dac57610dac6154a2565b6020026020010151341115610dea57610dea3387600081518110610dd257610dd26154a2565b602002602001015134610de5919061546e565b613894565b505050505095945050505050565b60008180421115610e255760405163dae7ca7d60e01b815260048101829052426024820152604401610733565b8585815160001480610e44575080518251610e41906001615456565b14155b15610e625760405163b91b4d4d60e01b815260040160405180910390fd5b7f00000000000000000000000000000000000000000000000000000000000000006001600160a01b031687600081518110610e9f57610e9f6154a2565b60200260200101516001600160a01b031614610ec85786600081518110610b2757610b276154a2565b6000610ed48989612889565b9050600088825181518110610eeb57610eeb6154a2565b60209081029190910101516040516370a0823160e01b81526001600160a01b038a811660048301529192506000918316906370a0823190602401602060405180830381865afa158015610f42573d6000803e3d6000fd5b505050506040513d601f19601f82011682018060405250810190610f6691906154b8565b9050610f7e83600081518110610b7c57610b7c6154a2565b610f8a838c8c8c612a3f565b6040516370a0823160e01b81526001600160a01b038a811660048301528291908416906370a0823190602401602060405180830381865afa158015610fd3573d6000803e3d6000fd5b505050506040513d601f19601f82011682018060405250810190610ff791906154b8565b611001919061546e565b9650868c111561102e576040516313fab00360e21b8152600481018d905260248101889052604401610733565b50505050505095945050505050565b6000806000806000876001600160a01b0316631b05b83e6040518163ffffffff1660e01b8152600401606060405180830381865afa158015611083573d6000803e3d6000fd5b505050506040513d601f19601f820116820180604052508101906110a791906152d7565b92509250925086600014806110c85750856110c4578287116110c8565b8187115b156110fd5786866110d957836110db565b825b604051637c40a4df60e01b815260048101929092526024820152604401610733565b6000886001600160a01b03166398c7adf36040518163ffffffff1660e01b815260040161018060405180830381865afa15801561113e573d6000803e3d6000fd5b505050506040513d601f19601f820116820180604052508101906111629190615330565b905061116e81836126a8565b60008060005b604051630157d2d160e31b815262ffffff8616600482015260009081906001600160a01b038f1690630abe9688906024016040805180830381865afa1580156111c1573d6000803e3d6000fd5b505050506040513d601f19601f820116820180604052508101906111e5919061541c565b915091508b6111f457816111f6565b805b92505050600061120e86866000015161ffff1661391a565b905081156112cd57818c1015611224578b611226565b815b935060008b6112405761123b82866080613962565b61124c565b61124c85608084613995565b905061125886886139c7565b60006112648783613a39565b90506112708183615456565b94506001600160701b036112848587615456565b11156112a65760405163ec44eb8960e01b815260048101899052602401610733565b6112b0858d615456565b9b506112bc818c615456565b9a506112c8868f61546e565b9d5050505b8b1561135457604051638f919a8360e01b815262ffffff871660048201528b151560248201526001600160a01b038e1690638f919a8390604401602060405180830381865afa158015611324573d6000803e3d6000fd5b505050506040513d601f19601f820116820180604052508101906113489190615485565b62ffffff16955061135a565b50611360565b50611174565b8a1561137f576040516330b1335760e21b815260040160405180910390fd5b50505050505050935093915050565b7f00000000000000000000000000000000000000000000000000000000000000006001600160a01b0316638da5cb5b6040518163ffffffff1660e01b8152600401602060405180830381865afa1580156113ec573d6000803e3d6000fd5b505050506040513d601f19601f8201168201806040525081019061141091906154d1565b6001600160a01b0316336001600160a01b03161461144157604051635d9515b960e11b815260040160405180910390fd5b6001600160a01b03831661146b5760001981141561145c5750475b6114668282613894565b505050565b6000198114156114e0576040516370a0823160e01b81523060048201526001600160a01b038416906370a0823190602401602060405180830381865afa1580156114b9573d6000803e3d6000fd5b505050506040513d601f19601f820116820180604052508101906114dd91906154b8565b90505b6114666001600160a01b0384168383613a89565b60405163659ac74b60e01b81526001600160a01b038581166004830152848116602483015262ffffff8416604483015261ffff831660648301526000917f00000000000000000000000000000000000000000000000000000000000000009091169063659ac74b906084016020604051808303816000875af115801561157e573d6000803e3d6000fd5b505050506040513d601f19601f820116820180604052508101906115a291906154d1565b95945050505050565b600081804211156115d85760405163dae7ca7d60e01b815260048101829052426024820152604401610733565b85858151600014806115f75750805182516115f4906001615456565b14155b156116155760405163b91b4d4d60e01b815260040160405180910390fd5b60006116218989612889565b9050611656338260008151811061163a5761163a6154a2565b60200260200101518d8b600081518110610976576109766154a2565b6116638b828b8b8b612f59565b9450848a1115611690576040516313fab00360e21b8152600481018b905260248101869052604401610733565b505050509695505050505050565b606081804211156116cb5760405163dae7ca7d60e01b815260048101829052426024820152604401610733565b85858151600014806116ea5750805182516116e7906001615456565b14155b156117085760405163b91b4d4d60e01b815260040160405180910390fd5b7f00000000000000000000000000000000000000000000000000000000000000006001600160a01b031687895181518110611745576117456154a2565b60200260200101516001600160a01b03161461176e5786885181518110610b2757610b276154a2565b600061177a8989612889565b905061178889828a8e6132da565b9450898560008151811061179e5761179e6154a2565b602002602001015111156117c0578985600081518110610cf357610cf36154a2565b61180d33826000815181106117d7576117d76154a2565b6020026020010151876000815181106117f2576117f26154a2565b60200260200101518b600081518110610976576109766154a2565b600061181c828b8b89306135c5565b90508b811015611849576040516313fab00360e21b8152600481018d905260248101829052604401610733565b604051632e1a7d4d60e01b8152600481018290527f00000000000000000000000000000000000000000000000000000000000000006001600160a01b031690632e1a7d4d90602401600060405180830381600087803b1580156118ab57600080fd5b505af11580156118bf573d6000803e3d6000fd5b505050506118cd8882613894565b50505050509695505050505050565b600081804211156119095760405163dae7ca7d60e01b815260048101829052426024820152604401610733565b8585815160001480611928575080518251611925906001615456565b14155b156119465760405163b91b4d4d60e01b815260040160405180910390fd5b7f00000000000000000000000000000000000000000000000000000000000000006001600160a01b031687895181518110611983576119836154a2565b60200260200101516001600160a01b0316146119ac5786885181518110610b2757610b276154a2565b60006119b88989612889565b6040516370a0823160e01b81523060048201529091506000906001600160a01b037f000000000000000000000000000000000000000000000000000000000000000016906370a0823190602401602060405180830381865afa158015611a22573d6000803e3d6000fd5b505050506040513d601f19601f82011682018060405250810190611a4691906154b8565b9050611a7b3383600081518110611a5f57611a5f6154a2565b60200260200101518e8c600081518110610976576109766154a2565b611a87828b8b30612a3f565b6040516370a0823160e01b815230600482015281907f00000000000000000000000000000000000000000000000000000000000000006001600160a01b0316906370a0823190602401602060405180830381865afa158015611aed573d6000803e3d6000fd5b505050506040513d601f19601f82011682018060405250810190611b1191906154b8565b611b1b919061546e565b9550858b1115611b48576040516313fab00360e21b8152600481018c905260248101879052604401610733565b604051632e1a7d4d60e01b8152600481018790527f00000000000000000000000000000000000000000000000000000000000000006001600160a01b031690632e1a7d4d90602401600060405180830381600087803b158015611baa57600080fd5b505af1158015611bbe573d6000803e3d6000fd5b505050506118cd8887613894565b60608180421115611bf95760405163dae7ca7d60e01b815260048101829052426024820152604401610733565b8585815160001480611c18575080518251611c15906001615456565b14155b15611c365760405163b91b4d4d60e01b815260040160405180910390fd5b6000611c428989612889565b9050611c5089828a8e6132da565b94508985600081518110611c6657611c666154a2565b60200260200101511115611c88578985600081518110610cf357610cf36154a2565b611c9f33826000815181106117d7576117d76154a2565b6000611cae828b8b898c6135c5565b90508b8110156118cd576040516313fab00360e21b8152600481018d905260248101829052604401610733565b6000808280421115611d095760405163dae7ca7d60e01b815260048101829052426024820152604401610733565b6000611d3a8c7f00000000000000000000000000000000000000000000000000000000000000008d61ffff16613b40565b90506000816001600160a01b031663b7d19fc46040518163ffffffff1660e01b8152600401602060405180830381865afa158015611d7c573d6000803e3d6000fd5b505050506040513d601f19601f82011682018060405250810190611da091906154d1565b6001600160a01b03167f00000000000000000000000000000000000000000000000000000000000000006001600160a01b031614905080611ddf579899985b600080611df0848e8e8e8e30613c25565b9150915082611e00578082611e03565b81815b9097509550611e1f9150506001600160a01b038e168887613a89565b604051632e1a7d4d60e01b8152600481018590527f00000000000000000000000000000000000000000000000000000000000000006001600160a01b031690632e1a7d4d90602401600060405180830381600087803b158015611e8157600080fd5b505af1158015611e95573d6000803e3d6000fd5b50505050611ea38785613894565b5050509850989650505050505050565b6000808280421115611ee15760405163dae7ca7d60e01b815260048101829052426024820152604401610733565b6000611ef28d8d8d61ffff16613b40565b90506000816001600160a01b03166316dc165b6040518163ffffffff1660e01b8152600401602060405180830381865afa158015611f34573d6000803e3d6000fd5b505050506040513d601f19601f82011682018060405250810190611f5891906154d1565b6001600160a01b03168e6001600160a01b0316141590508015611f79579899985b611f87828c8c8c8c8c613c25565b90955093508015611f96579293925b505050995099975050505050505050565b600061201f8262ffffff16846001600160a01b03166398c7adf36040518163ffffffff1660e01b815260040161018060405180830381865afa158015611ff1573d6000803e3d6000fd5b505050506040513d601f19601f820116820180604052508101906120159190615330565b5161ffff1661391a565b90505b92915050565b606080600061205761203d60208601866154ee565b61204d60408701602088016154ee565b8660400135613b40565b9050806001600160a01b03166316dc165b6040518163ffffffff1660e01b8152600401602060405180830381865afa158015612097573d6000803e3d6000fd5b505050506040513d601f19601f820116820180604052508101906120bb91906154d1565b6001600160a01b03166120d160208601866154ee565b6001600160a01b0316146120f85760405163b33f8ab960e01b815260040160405180910390fd5b6121203382606087013561210f60208901896154ee565b6001600160a01b031692919061297e565b61213a3382608087013561210f6040890160208a016154ee565b6121448482613d51565b909590945092505050565b7f00000000000000000000000000000000000000000000000000000000000000006001600160a01b0316638da5cb5b6040518163ffffffff1660e01b8152600401602060405180830381865afa1580156121ad573d6000803e3d6000fd5b505050506040513d601f19601f820116820180604052508101906121d191906154d1565b6001600160a01b0316336001600160a01b03161461220257604051635d9515b960e11b815260040160405180910390fd5b604051633ee83b9960e21b81526001600160a01b0387169063fba0ee64906122389030908990899089908990899060040161555a565b600060405180830381600087803b15801561225257600080fd5b505af1158015612266573d6000803e3d6000fd5b50505050505050505050565b606080600061228761203d60208601866154ee565b9050806001600160a01b03166316dc165b6040518163ffffffff1660e01b8152600401602060405180830381865afa1580156122c7573d6000803e3d6000fd5b505050506040513d601f19601f820116820180604052508101906122eb91906154d1565b6001600160a01b031661230160208601866154ee565b6001600160a01b0316146123285760405163b33f8ab960e01b815260040160405180910390fd5b6001600160a01b037f00000000000000000000000000000000000000000000000000000000000000001661235f60208601866154ee565b6001600160a01b03161480156123785750348460600135145b156123a6576123878134612eaa565b6123a13382608087013561210f6040890160208a016154ee565b61213a565b6001600160a01b037f0000000000000000000000000000000000000000000000000000000000000000166123e060408601602087016154ee565b6001600160a01b03161480156123f95750348460800135145b1561241f576124153382606087013561210f60208901896154ee565b6123a18134612eaa565b61242c60208501856154ee565b61243c60408601602087016154ee565b60405163959ceb2b60e01b81526001600160a01b03928316600482015291166024820152606085013560448201526080850135606482015234608482015260a401610733565b600061201f82846001600160a01b03166398c7adf36040518163ffffffff1660e01b815260040161018060405180830381865afa1580156124c7573d6000803e3d6000fd5b505050506040513d601f19601f820116820180604052508101906124eb9190615330565b5161ffff166140ed565b600081804211156125225760405163dae7ca7d60e01b815260048101829052426024820152604401610733565b858581516000148061254157508051825161253e906001615456565b14155b1561255f5760405163b91b4d4d60e01b815260040160405180910390fd5b7f00000000000000000000000000000000000000000000000000000000000000006001600160a01b03168789518151811061259c5761259c6154a2565b60200260200101516001600160a01b0316146125c55786885181518110610b2757610b276154a2565b60006125d18989612889565b90506125ea338260008151811061163a5761163a6154a2565b6125f78b828b8b30612f59565b9450848a1115612624576040516313fab00360e21b8152600481018b905260248101869052604401610733565b604051632e1a7d4d60e01b8152600481018690527f00000000000000000000000000000000000000000000000000000000000000006001600160a01b031690632e1a7d4d90602401600060405180830381600087803b15801561268657600080fd5b505af115801561269a573d6000803e3d6000fd5b505050506116908786613894565b600082610160015164ffffffffff16426126c2919061546e565b9050826040015161ffff16811015806126e5575061016083015164ffffffffff16155b156127455762ffffff8216610140840152606083015161ffff1681101561273c5761271083610100015162ffffff16846080015161ffff16028161272b5761272b6155a7565b0462ffffff16610120840152612745565b60006101208401525b61274e42614153565b64ffffffffff1661016084015261146683836139c7565b60408051808201909152600080825260208201819052908190600061279287896000015161ffff1661391a565b905060008087156127c05760208b01516001600160701b031691506127b982608085613995565b90506127dc565b8a516001600160701b031691506127d983836080613962565b90505b6127e68a8a6139c7565b6127fa6127f38b83613a39565b8b90614183565b80519094508790612814906001600160801b031683615456565b116128245780955081945061287b565b6128316127f38b896141cf565b8051909450612849906001600160801b03168861546e565b9550876128615761285c86608085614216565b61286d565b61286d83876080614263565b94508185111561287b578194505b505050955095509592505050565b6060825167ffffffffffffffff8111156128a5576128a5614c0b565b6040519080825280602002602001820160405280156128ce578160200160208202803683370190505b509050600080836000815181106128e7576128e76154a2565b6020026020010151905060005b835181101561297557819250848160010181518110612915576129156154a2565b60200260200101519150612943868281518110612934576129346154a2565b602002602001015184846142f2565b848281518110612955576129556154a2565b6001600160a01b03909216602092830291909101909101526001016128f4565b50505092915050565b8015612a3957604080516001600160a01b0385811660248301528416604482015260648082018490528251808303909101815260849091019091526020810180517bffffffffffffffffffffffffffffffffffffffffffffffffffffffff166323b872dd60e01b17905260006129f486836143de565b905060008151118015612a18575080806020019051810190612a1691906155bd565b155b15612a365760405163197138bd60e11b815260040160405180910390fd5b50505b50505050565b600080600080600086600081518110612a5a57612a5a6154a2565b6020026020010151905060005b895181101561226657898181518110612a8257612a826154a2565b60200260200101519250888181518110612a9e57612a9e6154a2565b60200260200101519450819550878160010181518110612ac057612ac06154a2565b6020026020010151915089518160010114612af757898160010181518110612aea57612aea6154a2565b6020026020010151612af9565b865b935084612da157600080846001600160a01b0316630902f1ac6040518163ffffffff1660e01b8152600401606060405180830381865afa158015612b41573d6000803e3d6000fd5b505050506040513d601f19601f82011682018060405250810190612b6591906155f1565b506001600160701b031691506001600160701b03169150836001600160a01b0316886001600160a01b03161015612c9a576040516370a0823160e01b81526001600160a01b03868116600483015260009184918b16906370a0823190602401602060405180830381865afa158015612be1573d6000803e3d6000fd5b505050506040513d601f19601f82011682018060405250810190612c0591906154b8565b0390506000612c158285856144a9565b60405163022c0d9f60e01b8152600060048201819052602482018390526001600160a01b038b811660448401526080606484015260848301919091529192509088169063022c0d9f9060a401600060405180830381600087803b158015612c7b57600080fd5b505af1158015612c8f573d6000803e3d6000fd5b505050505050612d9a565b6040516370a0823160e01b81526001600160a01b03868116600483015260009183918b16906370a0823190602401602060405180830381865afa158015612ce5573d6000803e3d6000fd5b505050506040513d601f19601f82011682018060405250810190612d0991906154b8565b0390506000612d198284866144a9565b60405163022c0d9f60e01b8152600481018290526000602482018190526001600160a01b038b811660448401526080606484015260848301919091529192509088169063022c0d9f9060a401600060405180830381600087803b158015612d7f57600080fd5b505af1158015612d93573d6000803e3d6000fd5b5050505050505b5050612ea2565b826001600160a01b03166353c059a0846001600160a01b031663b7d19fc46040518163ffffffff1660e01b8152600401602060405180830381865afa158015612dee573d6000803e3d6000fd5b505050506040513d601f19601f82011682018060405250810190612e1291906154d1565b60405160e083901b7fffffffff000000000000000000000000000000000000000000000000000000001681526001600160a01b03918216868316146004820152908716602482015260440160408051808303816000875af1158015612e7b573d6000803e3d6000fd5b505050506040513d601f19601f82011682018060405250810190612e9f919061541c565b50505b600101612a67565b7f00000000000000000000000000000000000000000000000000000000000000006001600160a01b031663d0e30db0826040518263ffffffff1660e01b81526004016000604051808303818588803b158015612f0557600080fd5b505af1158015612f19573d6000803e3d6000fd5b50612f559350506001600160a01b037f000000000000000000000000000000000000000000000000000000000000000016915084905083613a89565b5050565b60008060008060008087600081518110612f7557612f756154a2565b602002602001015190508a955060005b8a5181101561102e578a8181518110612fa057612fa06154a2565b60200260200101519250898181518110612fbc57612fbc6154a2565b60200260200101519450819550888160010181518110612fde57612fde6154a2565b602002602001015191508a518160010114613015578a8160010181518110613008576130086154a2565b6020026020010151613017565b875b9350846131d357600080846001600160a01b0316630902f1ac6040518163ffffffff1660e01b8152600401606060405180830381865afa15801561305f573d6000803e3d6000fd5b505050506040513d601f19601f8201168201806040525081019061308391906155f1565b506001600160701b031691506001600160701b03169150836001600160a01b0316886001600160a01b03161015613142576130bf8983836144a9565b60405163022c0d9f60e01b8152600060048201819052602482018390526001600160a01b038981166044840152608060648401526084830191909152919a509086169063022c0d9f9060a401600060405180830381600087803b15801561312557600080fd5b505af1158015613139573d6000803e3d6000fd5b505050506131cc565b61314d8982846144a9565b60405163022c0d9f60e01b8152600481018290526000602482018190526001600160a01b038981166044840152608060648401526084830191909152919a509086169063022c0d9f9060a401600060405180830381600087803b1580156131b357600080fd5b505af11580156131c7573d6000803e3d6000fd5b505050505b50506132d2565b6000836001600160a01b031663b7d19fc46040518163ffffffff1660e01b8152600401602060405180830381865afa158015613213573d6000803e3d6000fd5b505050506040513d601f19601f8201168201806040525081019061323791906154d1565b60405163029e02cd60e51b81526001600160a01b039182168583161460048201819052878316602483015292506000918291908716906353c059a09060440160408051808303816000875af1158015613294573d6000803e3d6000fd5b505050506040513d601f19601f820116820180604052508101906132b8919061541c565b9150915082156132ca578099506132ce565b8199505b5050505b600101612f85565b6060825167ffffffffffffffff8111156132f6576132f6614c0b565b60405190808252806020026020018201604052801561331f578160200160208202803683370190505b5090508181855181518110613336576133366154a2565b602090810291909101015283515b80156135bc5760008461335860018461546e565b81518110613368576133686154a2565b60200260200101519050600087600184613382919061546e565b81518110613392576133926154a2565b602002602001015190506000876001856133ac919061546e565b815181106133bc576133bc6154a2565b6020026020010151905081600014156134e357600080826001600160a01b0316630902f1ac6040518163ffffffff1660e01b8152600401606060405180830381865afa158015613410573d6000803e3d6000fd5b505050506040513d601f19601f8201168201806040525081019061343491906155f1565b506001600160701b031691506001600160701b0316915088868151811061345d5761345d6154a2565b60200260200101516001600160a01b0316856001600160a01b0316111561348057905b6000878781518110613494576134946154a2565b602002602001015190506134b38383836145409092919063ffffffff16565b886134bf60018a61546e565b815181106134cf576134cf6154a2565b6020026020010181815250505050506135a6565b61357c818686815181106134f9576134f96154a2565b6020026020010151856001600160a01b0316846001600160a01b03166316dc165b6040518163ffffffff1660e01b8152600401602060405180830381865afa158015613549573d6000803e3d6000fd5b505050506040513d601f19601f8201168201806040525081019061356d91906154d1565b6001600160a01b03161461103d565b508561358960018761546e565b81518110613599576135996154a2565b6020026020010181815250505b50505080806135b490615636565b915050613344565b50949350505050565b600080600080600080886000815181106135e1576135e16154a2565b6020026020010151905060005b8b5181101561102e578b8181518110613609576136096154a2565b602002602001015192508a8181518110613625576136256154a2565b60200260200101519450819550898160010181518110613647576136476154a2565b602002602001015191508b51816001011461367e578b8160010181518110613671576136716154a2565b6020026020010151613680565b875b93508461378d5788816001018151811061369c5761369c6154a2565b60200260200101519650816001600160a01b0316866001600160a01b031610156137405760405163022c0d9f60e01b8152600060048201819052602482018990526001600160a01b03868116604484015260806064840152608483019190915284169063022c0d9f9060a4015b600060405180830381600087803b15801561372357600080fd5b505af1158015613737573d6000803e3d6000fd5b5050505061388c565b60405163022c0d9f60e01b8152600481018890526000602482018190526001600160a01b03868116604484015260806064840152608483019190915284169063022c0d9f9060a401613709565b6000836001600160a01b031663b7d19fc46040518163ffffffff1660e01b8152600401602060405180830381865afa1580156137cd573d6000803e3d6000fd5b505050506040513d601f19601f820116820180604052508101906137f191906154d1565b60405163029e02cd60e51b81526001600160a01b039182168583161460048201819052878316602483015292506000918291908716906353c059a09060440160408051808303816000875af115801561384e573d6000803e3d6000fd5b505050506040513d601f19601f82011682018060405250810190613872919061541c565b91509150821561388457809950613888565b8199505b5050505b6001016135ee565b6000826001600160a01b03168260405160006040518083038185875af1925050503d80600081146138e1576040519150601f19603f3d011682016040523d82523d6000602084013e6138e6565b606091505b505090508061146657604051631722e2bb60e21b81526001600160a01b038416600482015260248101839052604401610733565b600062ffffff8311156139405760405163163d8bab60e21b815260040160405180910390fd5b627fffff19830161395a81613954856145d2565b90614618565b949350505050565b600061396f848484614263565b90506001821b80613982576139826155a7565b8385091561398e576001015b9392505050565b60006139a2848484614216565b905081806139b2576139b26155a7565b6001841b85091561398e576001019392505050565b600082610120015162ffffff166127106139f485610140015162ffffff168561487190919063ffffffff16565b6139fe919061564d565b613a089190615456565b90508260e0015162ffffff168111613a205780613a26565b8260e001515b62ffffff16610100909301929092525050565b600080613a4584614888565b90506000613a5b82670de0b6b3a764000061546e565b905080600181613a6b858861564d565b613a759190615456565b613a7f919061546e565b6115a2919061566c565b801561146657604080516001600160a01b038416602482015260448082018490528251808303909101815260649091019091526020810180517bffffffffffffffffffffffffffffffffffffffffffffffffffffffff1663a9059cbb60e01b1790526000613af785836143de565b905060008151118015613b1b575080806020019051810190613b1991906155bd565b155b15613b395760405163197138bd60e11b815260040160405180910390fd5b5050505050565b60405163704037bd60e01b81526001600160a01b03848116600483015283811660248301526044820183905260009182917f0000000000000000000000000000000000000000000000000000000000000000169063704037bd90606401608060405180830381865afa158015613bba573d6000803e3d6000fd5b505050506040513d601f19601f82011682018060405250810190613bde919061568e565b6020015190506001600160a01b03811661395a57604051636b2471d160e11b81526001600160a01b0380871660048301528516602482015260448101849052606401610733565b600080876001600160a01b031663fba0ee64338a88886040518563ffffffff1660e01b8152600401613c5a9493929190615713565b600060405180830381600087803b158015613c7457600080fd5b505af1158015613c88573d6000803e3d6000fd5b5050604051630acd451d60e01b81526001600160a01b038b169250630acd451d9150613cbc90889088908890600401615751565b60408051808303816000875af1158015613cda573d6000803e3d6000fd5b505050506040513d601f19601f82011682018060405250810190613cfe919061541c565b909250905086821080613d1057508581105b15613d46576040516318ccfb7760e11b815260048101889052602481018390526044810187905260648101829052608401610733565b965096945050505050565b606080836101a0013580421115613d845760405163dae7ca7d60e01b815260048101829052426024820152604401610733565b613d92610140860186615790565b9050613da2610120870187615790565b905014158015613dd05750613dbb610160860186615790565b9050613dcb610120870187615790565b905014155b15613dee5760405163b91b4d4d60e01b815260040160405180910390fd5b62ffffff60e08601351180613e0a575062ffffff610100860135115b15613e395760405163197a55c760e11b815260e086013560048201526101008601356024820152604401610733565b6000846001600160a01b0316631b05b83e6040518163ffffffff1660e01b8152600401606060405180830381865afa158015613e79573d6000803e3d6000fd5b505050506040513d601f19601f82011682018060405250810190613e9d91906152d7565b92505050808661010001358760e00135011080613ec457508560e001358661010001358201105b15613efa57604051637d50edab60e11b815260e08701356004820152610100870135602482015260448101829052606401610733565b613f08610120870187615790565b905067ffffffffffffffff811115613f2257613f22614c0b565b604051908082528060200260200182016040528015613f4b578160200160208202803683370190505b50935060005b8451811015613fde576000613f6a610120890189615790565b83818110613f7a57613f7a6154a2565b90506020020135830190506000811280613f96575062ffffff81115b15613fb7576040516370a82e6160e11b815260048101829052602401610733565b80868381518110613fca57613fca6154a2565b602090810291909101015250600101613f51565b506000806001600160a01b03871663714c8592876140006101408c018c615790565b61400e6101608e018e615790565b8e61018001602081019061402291906154ee565b6040518763ffffffff1660e01b8152600401614043969594939291906157da565b6000604051808303816000875af1158015614062573d6000803e3d6000fd5b505050506040513d6000823e601f3d908101601f1916820160405261408a9190810190615832565b9650909250905060a08801358210806140a657508760c0013581105b156140e2576040516318ccfb7760e11b815260a089013560048201526024810183905260c0890135604482015260648101829052608401610733565b505050509250929050565b6000806140f9836145d2565b90506000614106826148b1565b61410f866148b1565b8161411c5761411c6155a7565b05628000000190506000811280614135575062ffffff81115b1561395a5760405163163d8bab60e21b815260040160405180910390fd5b8064ffffffffff8116811461417e576040516302dfd99760e01b815260048101839052602401610733565b919050565b60408051808201909152600080825260208201526141a0826149bc565b6001600160801b0316815260c08301516127109061ffff168302046001600160801b0316602082015292915050565b6000670de0b6b3a76400006001670de0b6b3a76400006141ee86614888565b6141f8908661564d565b6142029190615456565b61420c919061546e565b61201f919061566c565b600060ff83111561423d57604051630b72ecf560e41b815260048101849052602401610733565b83831b61010084900385901c614259866001871b8685856149e9565b9695505050505050565b600060ff82111561428a57604051630b72ecf560e41b815260048101839052602401610733565b6000806142978686614a9c565b91509150816000146142a95781841c92505b80156142e9576001841b81106142dc57604051633d90990f60e01b81526004810182905260248101859052604401610733565b836101000381901b830192505b50509392505050565b6000836143d35760405163e6a4390560e01b81526001600160a01b03848116600483015283811660248301527f0000000000000000000000000000000000000000000000000000000000000000169063e6a4390590604401602060405180830381865afa158015614367573d6000803e3d6000fd5b505050506040513d601f19601f8201168201806040525081019061438b91906154d1565b90506001600160a01b0381166143ce57604051636b2471d160e11b81526001600160a01b0380851660048301528316602482015260448101859052606401610733565b61398e565b61395a838386613b40565b6060600080846001600160a01b0316846040516143fb91906158d8565b6000604051808303816000865af19150503d8060008114614438576040519150601f19603f3d011682016040523d82523d6000602084013e61443d565b606091505b5091509150811561448257805115801561445f57506001600160a01b0385163b155b1561447d57604051635d97df8960e01b815260040160405180910390fd5b61395a565b80516144a157604051632407429160e01b815260040160405180910390fd5b805181602001fd5b6000836144c95760405163b229ed3360e01b815260040160405180910390fd5b8215806144d4575081155b156144f2576040516398c59a2960e01b815260040160405180910390fd5b6000614500856103e561564d565b9050600061450e848361564d565b905060008261451f876103e861564d565b6145299190615456565b9050614535818361566c565b979650505050505050565b6000836145605760405163b229ed3360e01b815260040160405180910390fd5b82158061456b575081155b15614589576040516398c59a2960e01b815260040160405180910390fd5b6000614595858561564d565b6145a1906103e861564d565b905060006145af868561546e565b6145bb906103e561564d565b90506145c7818361566c565b614259906001615456565b60008115806145e2575061271082115b15614603576040516374da1e1160e11b815260048101839052602401610733565b612710608083901b04600160801b0192915050565b60008080836146305750600160801b91506120229050565b50826000811215614642579015906000035b6210000081101561483257600160801b9250846001600160801b0381111561466c57911591600019045b600182161561467d5792830260801c925b800260801c60028216156146935792830260801c925b800260801c60048216156146a95792830260801c925b800260801c60088216156146bf5792830260801c925b800260801c60108216156146d55792830260801c925b800260801c60208216156146eb5792830260801c925b800260801c60408216156147015792830260801c925b8002608090811c908216156147185792830260801c925b800260801c61010082161561472f5792830260801c925b800260801c6102008216156147465792830260801c925b800260801c61040082161561475d5792830260801c925b800260801c6108008216156147745792830260801c925b800260801c61100082161561478b5792830260801c925b800260801c6120008216156147a25792830260801c925b800260801c6140008216156147b95792830260801c925b800260801c6180008216156147d05792830260801c925b800260801c620100008216156147e85792830260801c925b800260801c620200008216156148005792830260801c925b800260801c620400008216156148185792830260801c925b800260801c620800008216156148305792830260801c925b505b8261485a57604051630e9c7d6160e31b81526004810186905260248101859052604401610733565b8161486557826115a2565b6115a28360001961566c565b60008183116148825782820361201f565b50900390565b600061489382614abb565b8251602084015161ffff9182169116026402540be400020192915050565b600081600114156148c55750607f19919050565b816148e3576040516304c9fcb960e01b815260040160405180910390fd5b60019190911c9060006f80000000000000000000000000000000831061490b57506001614926565b5060001982600160fe1b81614922576149226155a7565b0492505b6000614935607f85901c614b0f565b707f80000000000000000000000000000000607f82901b16935060ff16905083811c6f8000000000000000000000000000000081146149b1576f400000000000000000000000000000005b60008113156149af57908002607f1c90600160801b82106149a7579384019360019190911c905b60011d614980565b505b50500260011b919050565b806001600160801b038116811461417e5760405163089f6cfb60e21b815260048101839052602401610733565b600081614a07578383816149ff576149ff6155a7565b0490506115a2565b838210614a315760405163656b542b60e11b81526004810183905260248101859052604401610733565b600084868809600186198101871660008190038190049091018683119095039490940294038390049390931760029290940460038102831880820284030280820284030280820284030280820284030280820284030290810290920390910292909202949350505050565b6000806000198385098385029250828110838203039150509250929050565b60008160a0015162ffffff1660001461417e576000826000015161ffff1683610100015162ffffff1602905060648360a0015162ffffff168283020260630181614b0757614b076155a7565b049392505050565b6000600160801b8210614b245750608090811c905b680100000000000000008210614b3c57604091821c91015b6401000000008210614b5057602091821c91015b620100008210614b6257601091821c91015b6101008210614b7357600891821c91015b60108210614b8357600491821c91015b60048210614b9357600291821c91015b6002821061417e57600101919050565b6001600160a01b0381168114614bb857600080fd5b50565b8015158114614bb857600080fd5b600080600060608486031215614bde57600080fd5b8335614be981614ba3565b9250602084013591506040840135614c0081614bbb565b809150509250925092565b634e487b7160e01b600052604160045260246000fd5b604051610180810167ffffffffffffffff81118282101715614c4557614c45614c0b565b60405290565b604051601f8201601f1916810167ffffffffffffffff81118282101715614c7457614c74614c0b565b604052919050565b600067ffffffffffffffff821115614c9657614c96614c0b565b5060051b60200190565b600082601f830112614cb157600080fd5b81356020614cc6614cc183614c7c565b614c4b565b82815260059290921b84018101918181019086841115614ce557600080fd5b8286015b84811015614d005780358352918301918301614ce9565b509695505050505050565b803561417e81614ba3565b600082601f830112614d2757600080fd5b81356020614d37614cc183614c7c565b82815260059290921b84018101918181019086841115614d5657600080fd5b8286015b84811015614d00578035614d6d81614ba3565b8352918301918301614d5a565b60008060008060008060c08789031215614d9357600080fd5b8635955060208701359450604087013567ffffffffffffffff80821115614db957600080fd5b614dc58a838b01614ca0565b95506060890135915080821115614ddb57600080fd5b50614de889828a01614d16565b9350506080870135614df981614ba3565b8092505060a087013590509295509295509295565b600080600080600060a08688031215614e2657600080fd5b85359450602086013567ffffffffffffffff80821115614e4557600080fd5b614e5189838a01614ca0565b95506040880135915080821115614e6757600080fd5b50614e7488828901614d16565b9350506060860135614e8581614ba3565b949793965091946080013592915050565b600081518084526020808501945080840160005b83811015614ec657815187529582019590820190600101614eaa565b509495945050505050565b60208152600061201f6020830184614e96565b600080600060608486031215614ef957600080fd5b8335614f0481614ba3565b92506020840135614f1481614ba3565b929592945050506040919091013590565b62ffffff81168114614bb857600080fd5b61ffff81168114614bb857600080fd5b803561417e81614f36565b60008060008060808587031215614f6757600080fd5b8435614f7281614ba3565b93506020850135614f8281614ba3565b92506040850135614f9281614f25565b91506060850135614fa281614f36565b939692955090935050565b600080600080600080600080610100898b031215614fca57600080fd5b8835614fd581614ba3565b97506020890135614fe581614f36565b96506040890135955060608901359450608089013567ffffffffffffffff8082111561501057600080fd5b61501c8c838d01614ca0565b955060a08b013591508082111561503257600080fd5b5061503f8b828c01614ca0565b93505060c089013561505081614ba3565b8092505060e089013590509295985092959890939650565b60008060008060008060008060006101208a8c03121561508757600080fd5b893561509281614ba3565b985060208a01356150a281614ba3565b97506150b060408b01614f46565b965060608a0135955060808a0135945060a08a013567ffffffffffffffff808211156150db57600080fd5b6150e78d838e01614ca0565b955060c08c01359150808211156150fd57600080fd5b5061510a8c828d01614ca0565b93505061511960e08b01614d0b565b91506101008a013590509295985092959850929598565b6000806040838503121561514357600080fd5b823561514e81614ba3565b9150602083013561515e81614f25565b809150509250929050565b60006020828403121561517b57600080fd5b813567ffffffffffffffff81111561519257600080fd5b82016101c0818503121561398e57600080fd5b6040815260006151b86040830185614e96565b82810360208401526115a28185614e96565b60008083601f8401126151dc57600080fd5b50813567ffffffffffffffff8111156151f457600080fd5b6020830191508360208260051b850101111561520f57600080fd5b9250929050565b6000806000806000806080878903121561522f57600080fd5b863561523a81614ba3565b9550602087013561524a81614ba3565b9450604087013567ffffffffffffffff8082111561526757600080fd5b6152738a838b016151ca565b9096509450606089013591508082111561528c57600080fd5b5061529989828a016151ca565b979a9699509497509295939492505050565b600080604083850312156152be57600080fd5b82356152c981614ba3565b946020939093013593505050565b6000806000606084860312156152ec57600080fd5b8351925060208401519150604084015190509250925092565b805161417e81614f36565b805161417e81614f25565b805164ffffffffff8116811461417e57600080fd5b6000610180828403121561534357600080fd5b61534b614c21565b61535483615305565b815261536260208401615305565b602082015261537360408401615305565b604082015261538460608401615305565b606082015261539560808401615305565b60808201526153a660a08401615310565b60a08201526153b760c08401615305565b60c08201526153c860e08401615310565b60e08201526101006153db818501615310565b908201526101206153ed848201615310565b908201526101406153ff848201615310565b9082015261016061541184820161531b565b908201529392505050565b6000806040838503121561542f57600080fd5b505080516020909101519092909150565b634e487b7160e01b600052601160045260246000fd5b6000821982111561546957615469615440565b500190565b60008282101561548057615480615440565b500390565b60006020828403121561549757600080fd5b815161398e81614f25565b634e487b7160e01b600052603260045260246000fd5b6000602082840312156154ca57600080fd5b5051919050565b6000602082840312156154e357600080fd5b815161398e81614ba3565b60006020828403121561550057600080fd5b813561398e81614ba3565b81835260007f07ffffffffffffffffffffffffffffffffffffffffffffffffffffffffffffff83111561553d57600080fd5b8260051b8083602087013760009401602001938452509192915050565b60006001600160a01b0380891683528088166020840152506080604083015261558760808301868861550b565b828103606084015261559a81858761550b565b9998505050505050505050565b634e487b7160e01b600052601260045260246000fd5b6000602082840312156155cf57600080fd5b815161398e81614bbb565b80516001600160701b038116811461417e57600080fd5b60008060006060848603121561560657600080fd5b61560f846155da565b925061561d602085016155da565b9150604084015163ffffffff81168114614c0057600080fd5b60008161564557615645615440565b506000190190565b600081600019048311821515161561566757615667615440565b500290565b60008261568957634e487b7160e01b600052601260045260246000fd5b500490565b6000608082840312156156a057600080fd5b6040516080810181811067ffffffffffffffff821117156156c3576156c3614c0b565b60405282516156d181614f36565b815260208301516156e181614ba3565b602082015260408301516156f481614bbb565b6040820152606083015161570781614bbb565b60608201529392505050565b60006001600160a01b0380871683528086166020840152506080604083015261573f6080830185614e96565b82810360608401526145358185614e96565b6060815260006157646060830186614e96565b82810360208401526157768186614e96565b9150506001600160a01b0383166040830152949350505050565b6000808335601e198436030181126157a757600080fd5b83018035915067ffffffffffffffff8211156157c257600080fd5b6020019150600581901b360382131561520f57600080fd5b6080815260006157ed6080830189614e96565b828103602084015261580081888a61550b565b9050828103604084015261581581868861550b565b9150506001600160a01b0383166060830152979650505050505050565b60008060006060848603121561584757600080fd5b835192506020808501519250604085015167ffffffffffffffff81111561586d57600080fd5b8501601f8101871361587e57600080fd5b805161588c614cc182614c7c565b81815260059190911b820183019083810190898311156158ab57600080fd5b928401925b828410156158c9578351825292840192908401906158b0565b80955050505050509250925092565b6000825160005b818110156158f957602081860181015185830152016158df565b81811115615908576000828501525b50919091019291505056fea26469706673582212206c05eee95a8862d596ac1d3ea3c231cfdc4a1453951fddb1394e8ead624c932964736f6c634300080a0033",
    "linkReferences": {}
  },
  "methodIdentifiers": {
    "addLiquidity((address,address,uint256,uint256,uint256,uint256,uint256,uint256,uint256,int256[],uint256[],uint256[],address,uint256))": "e324a3e4",
    "addLiquidityAVAX((address,address,uint256,uint256,uint256,uint256,uint256,uint256,uint256,int256[],uint256[],uint256[],address,uint256))": "ea8f43d8",
    "createLBPair(address,address,uint24,uint16)": "659ac74b",
    "factory()": "c45a0155",
    "getIdFromPrice(address,uint256)": "f96fe925",
    "getPriceFromId(address,uint24)": "d0e380f2",
    "getSwapIn(address,uint256,bool)": "5bdd4b7c",
    "getSwapOut(address,uint256,bool)": "2004b724",
    "oldFactory()": "1bd6dfe1",
    "removeLiquidity(address,address,uint16,uint256,uint256,uint256[],uint256[],address,uint256)": "c22159b6",
    "removeLiquidityAVAX(address,uint16,uint256,uint256,uint256[],uint256[],address,uint256)": "bcb1c957",
    "swapAVAXForExactTokens(uint256,uint256[],address[],address,uint256)": "42f564a0",
    "swapExactAVAXForTokens(uint256,uint256[],address[],address,uint256)": "264bb94e",
    "swapExactAVAXForTokensSupportingFeeOnTransferTokens(uint256,uint256[],address[],address,uint256)": "440830bd",
    "swapExactTokensForAVAX(uint256,uint256,uint256[],address[],address,uint256)": "fb321c70",
    "swapExactTokensForAVAXSupportingFeeOnTransferTokens(uint256,uint256,uint256[],address[],address,uint256)": "9a17e820",
    "swapExactTokensForTokens(uint256,uint256,uint256[],address[],address,uint256)": "6d0ff495",
    "swapExactTokensForTokensSupportingFeeOnTransferTokens(uint256,uint256,uint256[],address[],address,uint256)": "212a1d94",
    "swapTokensForExactAVAX(uint256,uint256,uint256[],address[],address,uint256)": "6d3420ed",
    "swapTokensForExactTokens(uint256,uint256,uint256[],address[],address,uint256)": "a7b856d3",
    "sweep(address,address,uint256)": "62c06767",
    "sweepLBToken(address,address,uint256[],uint256[])": "e9361c08",
    "wavax()": "117be4c2"
  },
  "id": 22
}